{
  "contractName": "HeymateEscrows",
  "abi": [
    {
      "inputs": [],
      "stateMutability": "nonpayable",
      "type": "constructor"
    },
    {
      "anonymous": false,
      "inputs": [
        {
          "indexed": false,
          "internalType": "bytes32",
          "name": "_tradeHash",
          "type": "bytes32"
        }
      ],
      "name": "CancelledByConsumer",
      "type": "event"
    },
    {
      "anonymous": false,
      "inputs": [
        {
          "indexed": false,
          "internalType": "bytes32",
          "name": "_tradeHash",
          "type": "bytes32"
        }
      ],
      "name": "CancelledByServiceProvider",
      "type": "event"
    },
    {
      "anonymous": false,
      "inputs": [
        {
          "indexed": false,
          "internalType": "bytes32",
          "name": "_tradeHash",
          "type": "bytes32"
        }
      ],
      "name": "Created",
      "type": "event"
    },
    {
      "anonymous": false,
      "inputs": [
        {
          "indexed": false,
          "internalType": "bytes32",
          "name": "_tradeHash",
          "type": "bytes32"
        }
      ],
      "name": "Released",
      "type": "event"
    },
    {
      "anonymous": false,
      "inputs": [
        {
          "indexed": false,
          "internalType": "bytes32",
          "name": "_tradeHash",
          "type": "bytes32"
        }
      ],
      "name": "StartService",
      "type": "event"
    },
    {
      "inputs": [],
      "name": "cancellationValueDeposit",
      "outputs": [
        {
          "internalType": "uint256",
          "name": "",
          "type": "uint256"
        }
      ],
      "stateMutability": "view",
      "type": "function"
    },
    {
      "inputs": [],
      "name": "consumer",
      "outputs": [
        {
          "internalType": "address",
          "name": "",
          "type": "address"
        }
      ],
      "stateMutability": "view",
      "type": "function"
    },
    {
      "inputs": [],
      "name": "delayCompensation",
      "outputs": [
        {
          "internalType": "uint256",
          "name": "",
          "type": "uint256"
        }
      ],
      "stateMutability": "view",
      "type": "function"
    },
    {
      "inputs": [],
      "name": "feesAvailableForWithdraw",
      "outputs": [
        {
          "internalType": "uint256",
          "name": "",
          "type": "uint256"
        }
      ],
      "stateMutability": "view",
      "type": "function"
    },
    {
      "inputs": [
        {
          "internalType": "bytes32",
          "name": "",
          "type": "bytes32"
        }
      ],
      "name": "offers",
      "outputs": [
        {
          "internalType": "bool",
          "name": "exists",
          "type": "bool"
        },
        {
          "internalType": "uint32",
          "name": "serviceStartTime",
          "type": "uint32"
        },
        {
          "internalType": "uint256",
          "name": "initialDepositValue",
          "type": "uint256"
        },
        {
          "internalType": "uint256",
          "name": "remainingValue",
          "type": "uint256"
        },
        {
          "internalType": "uint32",
          "name": "slotTime",
          "type": "uint32"
        },
        {
          "internalType": "uint32",
          "name": "tradeStartTime",
          "type": "uint32"
        },
        {
          "internalType": "uint32",
          "name": "cancelHourVar1",
          "type": "uint32"
        },
        {
          "internalType": "uint32",
          "name": "cancelHourVar1Percen",
          "type": "uint32"
        },
        {
          "internalType": "uint32",
          "name": "cancelHourVar2",
          "type": "uint32"
        },
        {
          "internalType": "uint32",
          "name": "cancelHourVar2Percen",
          "type": "uint32"
        },
        {
          "internalType": "uint16",
          "name": "delayHour",
          "type": "uint16"
        },
        {
          "internalType": "uint16",
          "name": "delayHourPercen",
          "type": "uint16"
        },
        {
          "internalType": "enum HeymateEscrows.State",
          "name": "currentState",
          "type": "uint8"
        }
      ],
      "stateMutability": "view",
      "type": "function"
    },
    {
      "inputs": [],
      "name": "owner",
      "outputs": [
        {
          "internalType": "address",
          "name": "",
          "type": "address"
        }
      ],
      "stateMutability": "view",
      "type": "function"
    },
    {
      "inputs": [],
      "name": "releaseAmount",
      "outputs": [
        {
          "internalType": "uint256",
          "name": "",
          "type": "uint256"
        }
      ],
      "stateMutability": "view",
      "type": "function"
    },
    {
      "inputs": [],
      "name": "serviceProvider",
      "outputs": [
        {
          "internalType": "address",
          "name": "",
          "type": "address"
        }
      ],
      "stateMutability": "view",
      "type": "function"
    },
    {
      "inputs": [],
      "name": "totalFees",
      "outputs": [
        {
          "internalType": "uint256",
          "name": "",
          "type": "uint256"
        }
      ],
      "stateMutability": "view",
      "type": "function"
    },
    {
      "inputs": [],
      "name": "tradeHash",
      "outputs": [
        {
          "internalType": "bytes32",
          "name": "",
          "type": "bytes32"
        }
      ],
      "stateMutability": "view",
      "type": "function"
    },
    {
      "inputs": [
        {
          "internalType": "bytes16",
          "name": "_tradeID",
          "type": "bytes16"
        },
        {
          "internalType": "address payable",
          "name": "_serviceProvider",
          "type": "address"
        },
        {
          "internalType": "address",
          "name": "_consumer",
          "type": "address"
        },
        {
          "internalType": "uint256",
          "name": "_amount",
          "type": "uint256"
        },
        {
          "internalType": "uint16",
          "name": "_fee",
          "type": "uint16"
        },
        {
          "internalType": "uint32",
          "name": "_expiry",
          "type": "uint32"
        },
        {
          "internalType": "uint32",
          "name": "_slotTime",
          "type": "uint32"
        },
        {
          "internalType": "uint256",
          "name": "_initialDeposit",
          "type": "uint256"
        },
        {
          "internalType": "uint32",
          "name": "_cancelHourVar1",
          "type": "uint32"
        },
        {
          "internalType": "uint16",
          "name": "_cancelHourVar1Percen",
          "type": "uint16"
        },
        {
          "internalType": "uint32",
          "name": "_cancelHourVar2",
          "type": "uint32"
        },
        {
          "internalType": "uint16",
          "name": "_cancelHourVar2Percen",
          "type": "uint16"
        },
        {
          "internalType": "uint16",
          "name": "_delayHour",
          "type": "uint16"
        },
        {
          "internalType": "uint16",
          "name": "_delayHourPercen",
          "type": "uint16"
        },
        {
          "internalType": "bytes",
          "name": "signature",
          "type": "bytes"
        }
      ],
      "name": "createOffer",
      "outputs": [],
      "stateMutability": "payable",
      "type": "function"
    },
    {
      "inputs": [
        {
          "internalType": "bytes32",
          "name": "hash",
          "type": "bytes32"
        }
      ],
      "name": "prefixed",
      "outputs": [
        {
          "internalType": "bytes32",
          "name": "",
          "type": "bytes32"
        }
      ],
      "stateMutability": "pure",
      "type": "function"
    },
    {
      "inputs": [
        {
          "internalType": "bytes16",
          "name": "_tradeID",
          "type": "bytes16"
        },
        {
          "internalType": "address",
          "name": "_serviceProvider",
          "type": "address"
        },
        {
          "internalType": "address",
          "name": "_consumer",
          "type": "address"
        },
        {
          "internalType": "uint256",
          "name": "_amount",
          "type": "uint256"
        },
        {
          "internalType": "uint16",
          "name": "_fee",
          "type": "uint16"
        }
      ],
      "name": "startService",
      "outputs": [
        {
          "internalType": "bool",
          "name": "",
          "type": "bool"
        }
      ],
      "stateMutability": "nonpayable",
      "type": "function"
    },
    {
      "inputs": [
        {
          "internalType": "bytes16",
          "name": "_tradeID",
          "type": "bytes16"
        },
        {
          "internalType": "address payable",
          "name": "_serviceProvider",
          "type": "address"
        },
        {
          "internalType": "address payable",
          "name": "_consumer",
          "type": "address"
        },
        {
          "internalType": "uint256",
          "name": "_amount",
          "type": "uint256"
        },
        {
          "internalType": "uint16",
          "name": "_fee",
          "type": "uint16"
        }
      ],
      "name": "release",
      "outputs": [
        {
          "internalType": "bool",
          "name": "",
          "type": "bool"
        }
      ],
      "stateMutability": "payable",
      "type": "function"
    },
    {
      "inputs": [
        {
          "internalType": "bytes16",
          "name": "_tradeID",
          "type": "bytes16"
        },
        {
          "internalType": "address payable",
          "name": "_serviceProvider",
          "type": "address"
        },
        {
          "internalType": "address payable",
          "name": "_consumer",
          "type": "address"
        },
        {
          "internalType": "uint256",
          "name": "_amount",
          "type": "uint256"
        },
        {
          "internalType": "uint16",
          "name": "_fee",
          "type": "uint16"
        }
      ],
      "name": "consumerCancel",
      "outputs": [
        {
          "internalType": "bool",
          "name": "",
          "type": "bool"
        }
      ],
      "stateMutability": "nonpayable",
      "type": "function"
    },
    {
      "inputs": [
        {
          "internalType": "bytes16",
          "name": "_tradeID",
          "type": "bytes16"
        },
        {
          "internalType": "address",
          "name": "_serviceProvider",
          "type": "address"
        },
        {
          "internalType": "address payable",
          "name": "_consumer",
          "type": "address"
        },
        {
          "internalType": "uint256",
          "name": "_amount",
          "type": "uint256"
        },
        {
          "internalType": "uint16",
          "name": "_fee",
          "type": "uint16"
        }
      ],
      "name": "serviceProviderCancel",
      "outputs": [
        {
          "internalType": "bool",
          "name": "",
          "type": "bool"
        }
      ],
      "stateMutability": "nonpayable",
      "type": "function"
    },
    {
      "inputs": [
        {
          "internalType": "address payable",
          "name": "_to",
          "type": "address"
        },
        {
          "internalType": "uint256",
          "name": "_amount",
          "type": "uint256"
        }
      ],
      "name": "withdrawFees",
      "outputs": [],
      "stateMutability": "nonpayable",
      "type": "function"
    },
    {
      "inputs": [
        {
          "internalType": "address",
          "name": "_newOwner",
          "type": "address"
        }
      ],
      "name": "setOwner",
      "outputs": [],
      "stateMutability": "nonpayable",
      "type": "function"
    }
  ],
  "bytecode": "0x608060405234801561001057600080fd5b50336000806101000a81548173ffffffffffffffffffffffffffffffffffffffff021916908373ffffffffffffffffffffffffffffffffffffffff16021790555033600160006101000a81548173ffffffffffffffffffffffffffffffffffffffff021916908373ffffffffffffffffffffffffffffffffffffffff16021790555033600260006101000a81548173ffffffffffffffffffffffffffffffffffffffff021916908373ffffffffffffffffffffffffffffffffffffffff160217905550612c01806100e26000396000f3fe6080604052600436106101095760003560e01c80639a5be78811610095578063b4fd729611610064578063b4fd7296146107d5578063c062dc5f14610816578063de5785d514610841578063e9600f121461086c578063f02711e61461091b57610109565b80639a5be788146105d7578063a287b80214610602578063a382c39d146106be578063ad3b1b471461077a57610109565b8063474d3ff0116100dc578063474d3ff0146102955780634db9afec146103775780638d67933e146103a25780638d69e95e146105555780638da5cb5b1461059657610109565b806313114a9d1461010e57806313af4035146101395780631f2757131461018a578063342e9e55146101d9575b600080fd5b34801561011a57600080fd5b50610123610946565b6040518082815260200191505060405180910390f35b34801561014557600080fd5b506101886004803603602081101561015c57600080fd5b81019080803573ffffffffffffffffffffffffffffffffffffffff16906020019092919050505061094c565b005b34801561019657600080fd5b506101c3600480360360208110156101ad57600080fd5b81019080803590602001909291905050506109e7565b6040518082815260200191505060405180910390f35b3480156101e557600080fd5b5061027d600480360360a08110156101fc57600080fd5b8101908080356fffffffffffffffffffffffffffffffff19169060200190929190803573ffffffffffffffffffffffffffffffffffffffff169060200190929190803573ffffffffffffffffffffffffffffffffffffffff16906020019092919080359060200190929190803561ffff169060200190929190505050610a3f565b60405180821515815260200191505060405180910390f35b3480156102a157600080fd5b506102ce600480360360208110156102b857600080fd5b8101908080359060200190929190505050610afa565b604051808e151581526020018d63ffffffff1681526020018c81526020018b81526020018a63ffffffff1681526020018963ffffffff1681526020018863ffffffff1681526020018763ffffffff1681526020018663ffffffff1681526020018563ffffffff1681526020018461ffff1681526020018361ffff16815260200182600581111561035a57fe5b81526020019d505050505050505050505050505060405180910390f35b34801561038357600080fd5b5061038c610c06565b6040518082815260200191505060405180910390f35b61055360048036036101e08110156103b957600080fd5b8101908080356fffffffffffffffffffffffffffffffff19169060200190929190803573ffffffffffffffffffffffffffffffffffffffff169060200190929190803573ffffffffffffffffffffffffffffffffffffffff16906020019092919080359060200190929190803561ffff169060200190929190803563ffffffff169060200190929190803563ffffffff16906020019092919080359060200190929190803563ffffffff169060200190929190803561ffff169060200190929190803563ffffffff169060200190929190803561ffff169060200190929190803561ffff169060200190929190803561ffff169060200190929190803590602001906401000000008111156104cd57600080fd5b8201836020820111156104df57600080fd5b8035906020019184600183028401116401000000008311171561050157600080fd5b91908080601f016020809104026020016040519081016040528093929190818152602001838380828437600081840152601f19601f820116905080830192505050505050509192919290505050610c0c565b005b34801561056157600080fd5b5061056a6112d5565b604051808273ffffffffffffffffffffffffffffffffffffffff16815260200191505060405180910390f35b3480156105a257600080fd5b506105ab6112fb565b604051808273ffffffffffffffffffffffffffffffffffffffff16815260200191505060405180910390f35b3480156105e357600080fd5b506105ec61131f565b6040518082815260200191505060405180910390f35b34801561060e57600080fd5b506106a6600480360360a081101561062557600080fd5b8101908080356fffffffffffffffffffffffffffffffff19169060200190929190803573ffffffffffffffffffffffffffffffffffffffff169060200190929190803573ffffffffffffffffffffffffffffffffffffffff16906020019092919080359060200190929190803561ffff169060200190929190505050611325565b60405180821515815260200191505060405180910390f35b3480156106ca57600080fd5b50610762600480360360a08110156106e157600080fd5b8101908080356fffffffffffffffffffffffffffffffff19169060200190929190803573ffffffffffffffffffffffffffffffffffffffff169060200190929190803573ffffffffffffffffffffffffffffffffffffffff16906020019092919080359060200190929190803561ffff1690602001909291905050506113e0565b60405180821515815260200191505060405180910390f35b34801561078657600080fd5b506107d36004803603604081101561079d57600080fd5b81019080803573ffffffffffffffffffffffffffffffffffffffff1690602001909291908035906020019092919050505061149b565b005b3480156107e157600080fd5b506107ea61155d565b604051808273ffffffffffffffffffffffffffffffffffffffff16815260200191505060405180910390f35b34801561082257600080fd5b5061082b611583565b6040518082815260200191505060405180910390f35b34801561084d57600080fd5b50610856611589565b6040518082815260200191505060405180910390f35b610903600480360360a081101561088257600080fd5b8101908080356fffffffffffffffffffffffffffffffff19169060200190929190803573ffffffffffffffffffffffffffffffffffffffff169060200190929190803573ffffffffffffffffffffffffffffffffffffffff16906020019092919080359060200190929190803561ffff16906020019092919050505061158f565b60405180821515815260200191505060405180910390f35b34801561092757600080fd5b5061093061164a565b6040518082815260200191505060405180910390f35b60075481565b60008054906101000a900473ffffffffffffffffffffffffffffffffffffffff1673ffffffffffffffffffffffffffffffffffffffff163373ffffffffffffffffffffffffffffffffffffffff16146109a457600080fd5b806000806101000a81548173ffffffffffffffffffffffffffffffffffffffff021916908373ffffffffffffffffffffffffffffffffffffffff16021790555050565b60008160405160200180807f19457468657265756d205369676e6564204d6573736167653a0a333200000000815250601c01828152602001915050604051602081830303815290604052805190602001209050919050565b60008473ffffffffffffffffffffffffffffffffffffffff163373ffffffffffffffffffffffffffffffffffffffff1614610ae2576040517f08c379a00000000000000000000000000000000000000000000000000000000081526004018080602001828103825260148152602001807f4e6f7420536572766963652070726f766964657200000000000000000000000081525060200191505060405180910390fd5b610aef8686868686611650565b905095945050505050565b60096020528060005260406000206000915090508060000160009054906101000a900460ff16908060000160019054906101000a900463ffffffff16908060010154908060020154908060030160009054906101000a900463ffffffff16908060030160049054906101000a900463ffffffff16908060030160089054906101000a900463ffffffff169080600301600c9054906101000a900463ffffffff16908060030160109054906101000a900463ffffffff16908060030160149054906101000a900463ffffffff16908060030160189054906101000a900461ffff169080600301601a9054906101000a900461ffff169080600301601c9054906101000a900460ff1690508d565b60035481565b60008f8f8f8f8f60405160200180866fffffffffffffffffffffffffffffffff191681526010018573ffffffffffffffffffffffffffffffffffffffff1660601b81526014018473ffffffffffffffffffffffffffffffffffffffff1660601b81526014018381526020018261ffff1660f01b8152600201955050505050506040516020818303038152906040528051906020012090506009600082815260200190815260200160002060000160009054906101000a900460ff1615610d3a576040517f08c379a00000000000000000000000000000000000000000000000000000000081526004018080602001828103825260138152602001807f547261646520616c72656164792065786973740000000000000000000000000081525060200191505060405180910390fd5b8a63ffffffff164210610db5576040517f08c379a000000000000000000000000000000000000000000000000000000000815260040180806020018281038252600e8152602001807f4f6666657220657870697265642100000000000000000000000000000000000081525060200191505060405180910390fd5b60004290508d34148015610dc95750600034115b610e1e576040517f08c379a000000000000000000000000000000000000000000000000000000000815260040180806020018281038252604f815260200180612b7d604f913960600191505060405180910390fd5b8e73ffffffffffffffffffffffffffffffffffffffff163373ffffffffffffffffffffffffffffffffffffffff1614610ebf576040517f08c379a000000000000000000000000000000000000000000000000000000000815260040180806020018281038252600c8152602001807f4e6f7420636f6e73756d6572000000000000000000000000000000000000000081525060200191505060405180910390fd5b6000610eca836109e7565b905060008054906101000a900473ffffffffffffffffffffffffffffffffffffffff1673ffffffffffffffffffffffffffffffffffffffff16610f0d8286611987565b73ffffffffffffffffffffffffffffffffffffffff1614610f2d57600080fd5b60008a63ffffffff161115610f4757603c808b0202820199505b60008863ffffffff161115610f6157603c808902028a0197505b60008661ffff161115610f7757603c8087020295505b604051806101a00160405280600115158152602001600063ffffffff16815260200160008152602001600081526020018d63ffffffff1681526020018363ffffffff1681526020018b63ffffffff1681526020018a61ffff1663ffffffff1681526020018963ffffffff1681526020018861ffff1663ffffffff1681526020018761ffff1681526020018661ffff1681526020016000600581111561101857fe5b8152506009600085815260200190815260200160002060008201518160000160006101000a81548160ff02191690831515021790555060208201518160000160016101000a81548163ffffffff021916908363ffffffff160217905550604082015181600101556060820151816002015560808201518160030160006101000a81548163ffffffff021916908363ffffffff16021790555060a08201518160030160046101000a81548163ffffffff021916908363ffffffff16021790555060c08201518160030160086101000a81548163ffffffff021916908363ffffffff16021790555060e082015181600301600c6101000a81548163ffffffff021916908363ffffffff1602179055506101008201518160030160106101000a81548163ffffffff021916908363ffffffff1602179055506101208201518160030160146101000a81548163ffffffff021916908363ffffffff1602179055506101408201518160030160186101000a81548161ffff021916908361ffff16021790555061016082015181600301601a6101000a81548161ffff021916908361ffff16021790555061018082015181600301601c6101000a81548160ff021916908360058111156111e257fe5b02179055509050508260038190555060008b111561128a576112048f8c611a0b565b600960008581526020019081526020016000206001018190555060096000848152602001908152602001600020600101548f036009600085815260200190815260200160002060020181905550600160096000858152602001908152602001600020600301601c6101000a81548160ff0219169083600581111561128457fe5b02179055505b7f102d25c49d33fcdb8976a3f2744e0785c98d9e43b88364859e6aec4ae82eff5c836040518082815260200191505060405180910390a1505050505050505050505050505050505050565b600160009054906101000a900473ffffffffffffffffffffffffffffffffffffffff1681565b60008054906101000a900473ffffffffffffffffffffffffffffffffffffffff1681565b60055481565b60008373ffffffffffffffffffffffffffffffffffffffff163373ffffffffffffffffffffffffffffffffffffffff16146113c8576040517f08c379a000000000000000000000000000000000000000000000000000000000815260040180806020018281038252600c8152602001807f4e6f7420436f6e73756d6572000000000000000000000000000000000000000081525060200191505060405180910390fd5b6113d58686868686611a27565b905095945050505050565b60008473ffffffffffffffffffffffffffffffffffffffff163373ffffffffffffffffffffffffffffffffffffffff1614611483576040517f08c379a00000000000000000000000000000000000000000000000000000000081526004018080602001828103825260148152602001807f4e6f7420536572766963652070726f766964657200000000000000000000000081525060200191505060405180910390fd5b6114908686868686611fe4565b905095945050505050565b60008054906101000a900473ffffffffffffffffffffffffffffffffffffffff1673ffffffffffffffffffffffffffffffffffffffff163373ffffffffffffffffffffffffffffffffffffffff16146114f357600080fd5b60085481111561150257600080fd5b806008600082825403925050819055508173ffffffffffffffffffffffffffffffffffffffff166108fc829081150290604051600060405180830381858888f19350505050158015611558573d6000803e3d6000fd5b505050565b600260009054906101000a900473ffffffffffffffffffffffffffffffffffffffff1681565b60065481565b60085481565b60008373ffffffffffffffffffffffffffffffffffffffff163373ffffffffffffffffffffffffffffffffffffffff1614611632576040517f08c379a000000000000000000000000000000000000000000000000000000000815260040180806020018281038252600c8152602001807f4e6f7420436f6e73756d6572000000000000000000000000000000000000000081525060200191505060405180910390fd5b61163f86868686866123ea565b905095945050505050565b60045481565b600061165a612a97565b6000611669888888888861291b565b9150604051806101a00160405290816000820160009054906101000a900460ff161515151581526020016000820160019054906101000a900463ffffffff1663ffffffff1663ffffffff16815260200160018201548152602001600282015481526020016003820160009054906101000a900463ffffffff1663ffffffff1663ffffffff1681526020016003820160049054906101000a900463ffffffff1663ffffffff1663ffffffff1681526020016003820160089054906101000a900463ffffffff1663ffffffff1663ffffffff16815260200160038201600c9054906101000a900463ffffffff1663ffffffff1663ffffffff1681526020016003820160109054906101000a900463ffffffff1663ffffffff1663ffffffff1681526020016003820160149054906101000a900463ffffffff1663ffffffff1663ffffffff1681526020016003820160189054906101000a900461ffff1661ffff1661ffff16815260200160038201601a9054906101000a900461ffff1661ffff1661ffff16815260200160038201601c9054906101000a900460ff16600581111561180e57fe5b600581111561181957fe5b81525050915081600001516118335760009250505061197e565b6000600581111561184057fe5b826101800151600581111561185157fe5b148061187857506001600581111561186557fe5b826101800151600581111561187657fe5b145b6118cd576040517f08c379a000000000000000000000000000000000000000000000000000000000815260040180806020018281038252603e815260200180612b3f603e913960400191505060405180910390fd5b6000429050806009600084815260200190815260200160002060000160016101000a81548163ffffffff021916908363ffffffff160217905550600260096000848152602001908152602001600020600301601c6101000a81548160ff0219169083600581111561193a57fe5b02179055507fd324065b90f3e4348de67de1eb4a0a3c0c86b12203ed55d27b62ca4c5ac70426826040518082815260200191505060405180910390a1600193505050505b95945050505050565b600080600080611996856129d8565b92509250925060018684848460405160008152602001604052604051808581526020018460ff1681526020018381526020018281526020019450505050506020604051602081039080840390855afa1580156119f6573d6000803e3d6000fd5b50505060206040510351935050505092915050565b600080606483850281611a1a57fe5b0490508091505092915050565b6000611a31612a97565b6000611a40888888888861291b565b9150604051806101a00160405290816000820160009054906101000a900460ff161515151581526020016000820160019054906101000a900463ffffffff1663ffffffff1663ffffffff16815260200160018201548152602001600282015481526020016003820160009054906101000a900463ffffffff1663ffffffff1663ffffffff1681526020016003820160049054906101000a900463ffffffff1663ffffffff1663ffffffff1681526020016003820160089054906101000a900463ffffffff1663ffffffff1663ffffffff16815260200160038201600c9054906101000a900463ffffffff1663ffffffff1663ffffffff1681526020016003820160109054906101000a900463ffffffff1663ffffffff1663ffffffff1681526020016003820160149054906101000a900463ffffffff1663ffffffff1663ffffffff1681526020016003820160189054906101000a900461ffff1661ffff1661ffff16815260200160038201601a9054906101000a900461ffff1661ffff1661ffff16815260200160038201601c9054906101000a900460ff166005811115611be557fe5b6005811115611bf057fe5b8152505091508160000151611c0a57600092505050611fdb565b60026005811115611c1757fe5b60096000838152602001908152602001600020600301601c9054906101000a900460ff166005811115611c4657fe5b1415611c5757600092505050611fdb565b6000804290506009600084815260200190815260200160002060030160049054906101000a900463ffffffff1663ffffffff168163ffffffff16118015611cd057506009600084815260200190815260200160002060030160089054906101000a900463ffffffff1663ffffffff168163ffffffff1611155b15611d3d57606460096000858152602001908152602001600020600301600c9054906101000a900463ffffffff1663ffffffff1660096000868152602001908152602001600020600201540281611d2357fe5b04915081600481905550611d38898388612a0a565b611e1a565b6009600084815260200190815260200160002060030160089054906101000a900463ffffffff1663ffffffff168163ffffffff16118015611db057506009600084815260200190815260200160002060030160109054906101000a900463ffffffff1663ffffffff168163ffffffff1611155b15611e195760646009600085815260200190815260200160002060030160149054906101000a900463ffffffff1663ffffffff1660096000868152602001908152602001600020600201540281611e0357fe5b04915081600481905550611e18898388612a0a565b5b5b6000826009600086815260200190815260200160002060020154039050806006819055507feb3068634ce36ec03afc4df3b2f8754e0cfcb6855df545b0d46dc593ce432116846040518082815260200191505060405180910390a1611e80898289612a0a565b600460096000868152602001908152602001600020600301601c6101000a81548160ff02191690836005811115611eb357fe5b021790555060096000858152602001908152602001600020600080820160006101000a81549060ff02191690556000820160016101000a81549063ffffffff0219169055600182016000905560028201600090556003820160006101000a81549063ffffffff02191690556003820160046101000a81549063ffffffff02191690556003820160086101000a81549063ffffffff021916905560038201600c6101000a81549063ffffffff02191690556003820160106101000a81549063ffffffff02191690556003820160146101000a81549063ffffffff02191690556003820160186101000a81549061ffff021916905560038201601a6101000a81549061ffff021916905560038201601c6101000a81549060ff021916905550506001955050505050505b95945050505050565b6000611fee612a97565b6000611ffd888888888861291b565b9150604051806101a00160405290816000820160009054906101000a900460ff161515151581526020016000820160019054906101000a900463ffffffff1663ffffffff1663ffffffff16815260200160018201548152602001600282015481526020016003820160009054906101000a900463ffffffff1663ffffffff1663ffffffff1681526020016003820160049054906101000a900463ffffffff1663ffffffff1663ffffffff1681526020016003820160089054906101000a900463ffffffff1663ffffffff1663ffffffff16815260200160038201600c9054906101000a900463ffffffff1663ffffffff1663ffffffff1681526020016003820160109054906101000a900463ffffffff1663ffffffff1663ffffffff1681526020016003820160149054906101000a900463ffffffff1663ffffffff1663ffffffff1681526020016003820160189054906101000a900461ffff1661ffff1661ffff16815260200160038201601a9054906101000a900461ffff1661ffff1661ffff16815260200160038201601c9054906101000a900460ff1660058111156121a257fe5b60058111156121ad57fe5b81525050915081600001516121c7576000925050506123e1565b600260058111156121d457fe5b60096000838152602001908152602001600020600301601c9054906101000a900460ff16600581111561220357fe5b1415612214576000925050506123e1565b7f7e1b8bd6ad2377f0ea22e09a00bc100cf198e951c58de7b23577d00d447d0f10816040518082815260200191505060405180910390a1600960008281526020019081526020016000206002015460068190555061228986600960008481526020019081526020016000206002015486612a0a565b600360096000838152602001908152602001600020600301601c6101000a81548160ff021916908360058111156122bc57fe5b021790555060096000828152602001908152602001600020600080820160006101000a81549060ff02191690556000820160016101000a81549063ffffffff0219169055600182016000905560028201600090556003820160006101000a81549063ffffffff02191690556003820160046101000a81549063ffffffff02191690556003820160086101000a81549063ffffffff021916905560038201600c6101000a81549063ffffffff02191690556003820160106101000a81549063ffffffff02191690556003820160146101000a81549063ffffffff02191690556003820160186101000a81549061ffff021916905560038201601a6101000a81549061ffff021916905560038201601c6101000a81549060ff021916905550506001925050505b95945050505050565b60006123f4612a97565b6000612403888888888861291b565b9150604051806101a00160405290816000820160009054906101000a900460ff161515151581526020016000820160019054906101000a900463ffffffff1663ffffffff1663ffffffff16815260200160018201548152602001600282015481526020016003820160009054906101000a900463ffffffff1663ffffffff1663ffffffff1681526020016003820160049054906101000a900463ffffffff1663ffffffff1663ffffffff1681526020016003820160089054906101000a900463ffffffff1663ffffffff1663ffffffff16815260200160038201600c9054906101000a900463ffffffff1663ffffffff1663ffffffff1681526020016003820160109054906101000a900463ffffffff1663ffffffff1663ffffffff1681526020016003820160149054906101000a900463ffffffff1663ffffffff1663ffffffff1681526020016003820160189054906101000a900461ffff1661ffff1661ffff16815260200160038201601a9054906101000a900461ffff1661ffff1661ffff16815260200160038201601c9054906101000a900460ff1660058111156125a857fe5b60058111156125b357fe5b81525050915081600001516125cd57600092505050612912565b600260058111156125da57fe5b60096000838152602001908152602001600020600301601c9054906101000a900460ff16600581111561260957fe5b1461267c576040517f08c379a00000000000000000000000000000000000000000000000000000000081526004018080602001828103825260198152602001807f4e6f742027534552564943455f5354415254272073746174650000000000000081525060200191505060405180910390fd5b60006009600083815260200190815260200160002060030160189054906101000a900461ffff1661ffff166009600084815260200190815260200160002060030160009054906101000a900463ffffffff160163ffffffff166009600084815260200190815260200160002060000160019054906101000a900463ffffffff1663ffffffff16111561275257606460096000848152602001908152602001600020600301601a9054906101000a900461ffff1661ffff1687028161273c57fe5b04905080600581905550612751878287612a0a565b5b6000816009600085815260200190815260200160002060020154039050806006819055507f6eec2dd2382427616d4ea7ef183b16091feac4e2e63c8b55f25215f132df8d14836040518082815260200191505060405180910390a16127b8898288612a0a565b600560096000858152602001908152602001600020600301601c6101000a81548160ff021916908360058111156127eb57fe5b021790555060096000848152602001908152602001600020600080820160006101000a81549060ff02191690556000820160016101000a81549063ffffffff0219169055600182016000905560028201600090556003820160006101000a81549063ffffffff02191690556003820160046101000a81549063ffffffff02191690556003820160086101000a81549063ffffffff021916905560038201600c6101000a81549063ffffffff02191690556003820160106101000a81549063ffffffff02191690556003820160146101000a81549063ffffffff02191690556003820160186101000a81549061ffff021916905560038201601a6101000a81549061ffff021916905560038201601c6101000a81549060ff0219169055505060019450505050505b95945050505050565b6000806000878787878760405160200180866fffffffffffffffffffffffffffffffff191681526010018573ffffffffffffffffffffffffffffffffffffffff1660601b81526014018473ffffffffffffffffffffffffffffffffffffffff1660601b81526014018381526020018261ffff1660f01b815260020195505050505050604051602081830303815290604052805190602001209050600960008281526020019081526020016000208192509250509550959350505050565b600080600060418451146129eb57600080fd5b6020840151915060408401519050606084015160001a92509193909250565b60006127108261ffff16840281612a1d57fe5b04905080600781905550828184031115612a375750612a92565b806008600082825401925050819055508373ffffffffffffffffffffffffffffffffffffffff166108fc8285039081150290604051600060405180830381858888f19350505050158015612a8f573d6000803e3d6000fd5b50505b505050565b604051806101a00160405280600015158152602001600063ffffffff1681526020016000815260200160008152602001600063ffffffff168152602001600063ffffffff168152602001600063ffffffff168152602001600063ffffffff168152602001600063ffffffff168152602001600063ffffffff168152602001600061ffff168152602001600061ffff16815260200160006005811115612b3857fe5b8152509056fe4e6f7420696e202754524144455f494e495449414c495a454427206f722027494e495449414c5f5041594d454e545f524543454956454427207374617465416d6f756e742073656e642073686f756c6420626520657175616c20746f20746865207369676e65642076616c756520616e642073686f756c642062652067726561746572207468616e205a65726fa264697066735822122061224238a4f012b8cea11a4198bd8d52e462de31dbf62da55b5381948b82b39c64736f6c63430007040033",
  "immutableReferences": {},
  "source": "// SPDX-License-Identifier: RAN\n// pragma solidity >=0.4.22 <0.9.0;\n\npragma solidity ^0.7.4;\n\ncontract HeymateEscrows {\n    address public owner;\n    address public serviceProvider;\n    address public consumer;\n    bytes32 public tradeHash;\n    uint256 public cancellationValueDeposit;\n    uint256 public delayCompensation;\n    uint256 public releaseAmount;\n    uint256 public totalFees;\n    uint256 public feesAvailableForWithdraw;\n\n    event Created(bytes32 _tradeHash);\n    event StartService(bytes32 _tradeHash);\n    event Released(bytes32 _tradeHash);\n    event CancelledByServiceProvider(bytes32 _tradeHash);\n    event CancelledByConsumer(bytes32 _tradeHash);\n    \n    // To remove\n    enum State{ TRADE_INITIALIZED, INITIAL_PAYMENT_RECEIVED, SERVICE_START,\n    SERVICE_CANCELLED_BY_SP, SERVICE_CANCELLED_BY_CS, SERVICE_COMPLETE }\n        \n\n     struct Offer {\n        bool exists;\n        uint32 serviceStartTime;\n        uint256 initialDepositValue;\n        uint256 remainingValue;\n        uint32 slotTime;\n        uint32 tradeStartTime;\n        uint32 cancelHourVar1;\n        uint32 cancelHourVar1Percen;\n        uint32 cancelHourVar2;\n        uint32 cancelHourVar2Percen;\n        uint16 delayHour;\n        uint16 delayHourPercen;\n        State currentState;\n    }\n    \n    // Mapping of active trades. Key is a hash of the trade data\n    mapping (bytes32 => Offer) public offers;\n    \n    modifier onlyOwner() {\n        require(msg.sender == owner);\n        _;\n    }\n    \n    constructor() {\n        owner = msg.sender;\n        serviceProvider = msg.sender;\n        consumer = msg.sender;\n            \n    }\n    \n    // Get the offer details\n     function getOfferAndHash(\n      bytes16 _tradeID,\n      address _serviceProvider,\n      address _consumer,\n      uint256 _amount,\n      uint16 _fee\n    ) view private returns (Offer storage, bytes32) {\n        bytes32 _tradeHash = keccak256(abi.encodePacked(_tradeID, _serviceProvider, _consumer, _amount, _fee));\n        return (offers[_tradeHash], _tradeHash);\n    }\n\n    // Creating offer - Trade between service provider and consumer\n    \n    function createOffer(\n      bytes16 _tradeID, \n      address payable _serviceProvider, \n      address _consumer,\n      uint256 _amount, \n      uint16 _fee, \n      uint32 _expiry,\n      uint32 _slotTime,\n      uint256 _initialDeposit,\n      uint32 _cancelHourVar1,\n      uint16 _cancelHourVar1Percen,\n      uint32 _cancelHourVar2,\n      uint16 _cancelHourVar2Percen,\n      uint16 _delayHour,\n      uint16 _delayHourPercen,\n      bytes memory signature\n      \n    ) payable external  {\n        bytes32 _tradeHash = keccak256(abi.encodePacked(_tradeID, _serviceProvider, _consumer, _amount, _fee));\n        require(!offers[_tradeHash].exists, \"Trade already exist\");\n        require(block.timestamp < _expiry, \"Offer expired!\");\n        uint32 tradeStartTime = uint32(block.timestamp);\n        require(msg.value == _amount && msg.value > 0, \"Amount send should be equal to the signed value and should be greater than Zero\"); // Check sent eth against signed _value and make sure is not 0\n        \n        require(msg.sender == _consumer, \"Not consumer\");\n         // this recreates the message that was signed on the client\n        bytes32 message = prefixed(_tradeHash);\n\n        require(recoverSigner(message, signature) == owner); // Signature verification\n\n        if (_cancelHourVar1 > 0){\n          _cancelHourVar1 = tradeStartTime +  _cancelHourVar1 * 60 * 60;                                                                                                                                                                                                                                                                                                                                                                                                                                                                                                                                                                                                                                                                                                                                                                                                                                                                                                                                                                                                                                                                                                                                                                                                                                                                                                                                                                                                                                                                                                                                                                                                                                                                                                                                                                                                                                                                                                                                                                                                                                                                                                                                                                                                                                                                                                                                                                                                                                                                                                                                                                                                                                                                                                                                                                                                                                                                                                                                                                                                                                                                                                                                                                                                                                                                                                                                                                                                                                                                                                                                                                                                   \n        }\n        \n        if(_cancelHourVar2 > 0){\n         _cancelHourVar2 = _cancelHourVar1 + _cancelHourVar2 * 60 * 60;\n        }\n        \n         if(_delayHour> 0){\n         _delayHour = _delayHour * 60 * 60;\n        }\n        \n        offers[_tradeHash] = Offer(true, 0, 0, 0, _slotTime, tradeStartTime, _cancelHourVar1, _cancelHourVar1Percen,\n        _cancelHourVar2, _cancelHourVar2Percen, _delayHour, _delayHourPercen, State.TRADE_INITIALIZED );\n        \n        tradeHash = _tradeHash;\n        \n        \n        if(_initialDeposit > 0) {\n\n            offers[_tradeHash].initialDepositValue = getInitialDeposit(_amount, _initialDeposit) ;\n            offers[_tradeHash].remainingValue = _amount - offers[_tradeHash].initialDepositValue;\n            offers[_tradeHash].currentState = State.INITIAL_PAYMENT_RECEIVED;\n            \n            // transferMinusFees(_serviceProvider, offers[_tradeHash].initialDepositValue , _fee);\n         }\n         \n        emit Created(_tradeHash);\n    }\n\n     // Creates the hash.\n    function prefixed(bytes32 hash) public pure returns (bytes32) {\n        return keccak256(abi.encodePacked(\"\\x19Ethereum Signed Message:\\n32\", hash));\n    }\n    \n    function recoverSigner(bytes32 message, bytes memory sig)\n        internal\n        pure\n        returns (address)\n    {\n        (uint8 v, bytes32 r, bytes32 s) = splitSignature(sig);\n\n        return ecrecover(message, v, r, s);\n    }\n    \n      //signature methods.\n    function splitSignature(bytes memory sig)\n        internal\n        pure\n        returns (uint8 v, bytes32 r, bytes32 s)\n    {\n        require(sig.length == 65);\n\n        assembly {\n            // first 32 bytes, after the length prefix.\n            r := mload(add(sig, 32))\n            // second 32 bytes.\n            s := mload(add(sig, 64))\n            // final byte (first byte of the next 32 bytes).\n            v := byte(0, mload(add(sig, 96)))\n        }\n\n        return (v, r, s);\n    }\n       \n    function getInitialDeposit(uint256 _amount, uint256 _initialDeposit) private pure returns (uint256) {\n         uint256 _initialDepositValue =  (_amount * _initialDeposit / 100);\n            return _initialDepositValue;\n    }\n\n    //  function sendInitialDeposit(address payable _serviceProvider, uint256 _amount, uint256 _initialDeposit, uint16 _fee, bytes32 _tradeHash) private returns (uint256) {\n    //     //  uint256 _initialDepositValue =  (_amount * _initialDeposit / 100);\n    //     offers[_tradeHash].initialDepositValue =  (_amount * _initialDeposit / 100);\n    //     offers[_tradeHash].remainingValue = _amount - offers[_tradeHash].initialDepositValue;\n    //     offers[_tradeHash].currentState = State.INITIAL_PAYMENT_RECEIVED;\n    //     transferMinusFees(_serviceProvider, offers[_tradeHash].initialDepositValue , _fee);\n    // }\n   \n    // Start service function. Only SP can start the service.\n     function dostartService(\n      bytes16 _tradeID,\n      address _serviceProvider,\n      address _consumer,\n      uint256 _amount,\n      uint16 _fee\n    ) private returns (bool) {\n        (Offer memory _offer, bytes32 _tradeHash) = getOfferAndHash(_tradeID, _serviceProvider, _consumer, _amount, _fee);\n        \n        if (!_offer.exists) return false;\n        require(_offer.currentState == State.TRADE_INITIALIZED || _offer.currentState == State.INITIAL_PAYMENT_RECEIVED  , \"Not in 'TRADE_INITIALIZED' or 'INITIAL_PAYMENT_RECEIVED' state\");\n        \n        uint32 _serviceStartTime =  uint32(block.timestamp);\n        offers[_tradeHash].serviceStartTime = _serviceStartTime;\n        offers[_tradeHash].currentState = State.SERVICE_START;\n\n        emit  StartService(_tradeHash);\n        return true;\n    }\n    \n   \n    \n    // Consumer call this function to release remaining money and mark the service as Complete.\n    function doRelease(\n      bytes16 _tradeID,\n      address payable _serviceProvider,\n      address payable _consumer,\n      uint256 _amount,\n      uint16 _fee\n    ) private returns (bool) {\n       (Offer memory _offer, bytes32 _tradeHash) = getOfferAndHash(_tradeID, _serviceProvider, _consumer, _amount, _fee);\n\n        if (!_offer.exists) return false;\n        require(offers[_tradeHash].currentState == State.SERVICE_START, \"Not 'SERVICE_START' state\");\n         \n        uint256 _delayCompensationValue;\n        if(offers[_tradeHash].serviceStartTime > offers[_tradeHash].slotTime + offers[_tradeHash].delayHour )   {\n         _delayCompensationValue = (_amount * offers[_tradeHash].delayHourPercen / 100);\n         delayCompensation = _delayCompensationValue;\n         transferMinusFees(_consumer, _delayCompensationValue, _fee);\n        }\n\n        uint256 _releaseAmount = offers[_tradeHash].remainingValue - _delayCompensationValue;\n        releaseAmount = _releaseAmount;\n      \n        emit Released(_tradeHash);\n        transferMinusFees(_serviceProvider, _releaseAmount, _fee);\n        offers[_tradeHash].currentState = State.SERVICE_COMPLETE;\n        delete offers[_tradeHash];\n        return true;\n    }\n    \n    // SP can cancel the service.\n    function doServiceProviderCancel(\n      bytes16 _tradeID,\n      address _serviceProvider,\n      address payable _consumer,\n      uint256 _amount,\n      uint16 _fee\n    ) private returns (bool) {\n        (Offer memory _offer, bytes32 _tradeHash) = getOfferAndHash(_tradeID, _serviceProvider, _consumer, _amount, _fee);\n       \n        if (!_offer.exists) return false;\n        if(offers[_tradeHash].currentState == State.SERVICE_START) return false;\n\n        emit CancelledByServiceProvider(_tradeHash);\n        releaseAmount = offers[_tradeHash].remainingValue;\n        transferMinusFees(_consumer, offers[_tradeHash].remainingValue, _fee);\n        offers[_tradeHash].currentState = State.SERVICE_CANCELLED_BY_SP;\n        delete offers[_tradeHash];\n        return true;\n    }\n    \n    // Consumer can cancel the service. \n    function doConsumerCancel(\n      bytes16 _tradeID,\n      address payable _serviceProvider,\n      address payable _consumer,\n      uint256 _amount,\n      uint16 _fee\n    ) private returns (bool) {\n        (Offer memory _offer, bytes32 _tradeHash) = getOfferAndHash(_tradeID, _serviceProvider, _consumer, _amount, _fee);\n        if (!_offer.exists) return false;\n        if(offers[_tradeHash].currentState == State.SERVICE_START) return false;\n        \n        uint256 _cancellationValueDeposit = 0;\n        uint32 cancelTime =  uint32(block.timestamp);\n        \n        if(cancelTime > offers[_tradeHash].tradeStartTime  && cancelTime <= offers[_tradeHash].cancelHourVar1){\n              _cancellationValueDeposit = offers[_tradeHash].remainingValue * offers[_tradeHash].cancelHourVar1Percen / 100;\n               cancellationValueDeposit = _cancellationValueDeposit;\n               transferMinusFees(_serviceProvider, _cancellationValueDeposit, _fee);\n        }\n         \n        else if(cancelTime > offers[_tradeHash].cancelHourVar1 && cancelTime <= offers[_tradeHash].cancelHourVar2 ){\n              _cancellationValueDeposit = offers[_tradeHash].remainingValue *  offers[_tradeHash].cancelHourVar2Percen / 100;\n               cancellationValueDeposit = _cancellationValueDeposit;\n               transferMinusFees(_serviceProvider, _cancellationValueDeposit, _fee);\n        }\n         \n       \n        uint256 _releaseAmount = offers[_tradeHash].remainingValue - _cancellationValueDeposit;\n        releaseAmount = _releaseAmount;\n      \n        emit CancelledByConsumer(_tradeHash);\n        transferMinusFees(_consumer,  _releaseAmount, _fee);\n        offers[_tradeHash].currentState = State.SERVICE_CANCELLED_BY_CS;\n        delete offers[_tradeHash];\n        return true;\n    }\n  \n    \n      function startService(bytes16 _tradeID, address _serviceProvider, address _consumer, uint256 _amount, uint16 _fee) external returns (bool){\n      require(msg.sender == _serviceProvider, \"Not Service provider\");\n      return dostartService(_tradeID,  _serviceProvider, _consumer, _amount, _fee);\n    }\n    \n    \n     function release(bytes16 _tradeID, address payable _serviceProvider, address payable _consumer, uint256 _amount, uint16 _fee) external payable returns (bool){\n     require(msg.sender == _consumer, \"Not Consumer\");\n     return doRelease(_tradeID, _serviceProvider, _consumer, _amount, _fee);\n    }\n    \n    \n     function consumerCancel(bytes16 _tradeID, address payable _serviceProvider, address payable _consumer, uint256 _amount, uint16 _fee) external returns (bool) {\n     require(msg.sender == _consumer, \"Not Consumer\");\n     return doConsumerCancel(_tradeID, _serviceProvider, _consumer, _amount, _fee);\n    }\n    \n      function serviceProviderCancel(bytes16 _tradeID, address _serviceProvider, address payable _consumer, uint256 _amount, uint16 _fee) external returns (bool) {\n      require(msg.sender == _serviceProvider, 'Not Service provider');\n      return doServiceProviderCancel(_tradeID, _serviceProvider, _consumer, _amount, _fee);\n    }\n    \n     function transferMinusFees(address payable  _to, uint256 _amount, uint16 _fee) private {\n        uint256 _totalFees = (_amount * _fee / 10000);\n        totalFees = _totalFees;\n        if(_amount - _totalFees > _amount) return; // Prevent underflow\n        feesAvailableForWithdraw += _totalFees; \n        _to.transfer(_amount - _totalFees);\n    }\n    \n     function withdrawFees(address payable _to, uint256 _amount) onlyOwner external {\n        require(_amount <= feesAvailableForWithdraw); // Prevents underflow\n        feesAvailableForWithdraw -= _amount;\n        _to.transfer(_amount);\n    }\n    \n      function setOwner(address _newOwner) onlyOwner external {\n        owner = _newOwner;\n    }\n}\n\n",
  "sourcePath": "/home/liz/Documents/Work/HEYMATE/_Client/celo-smart-contracts/contracts/heymateOffer.sol",
  "compiler": {
    "name": "solc",
    "version": "0.7.4+commit.3f05b770.Emscripten.clang"
  },
  "schemaVersion": "3.3.4",
  "updatedAt": "2021-03-09T04:10:39.066Z",
  "devdoc": {
    "kind": "dev",
    "methods": {},
    "version": 1
  },
  "userdoc": {
    "kind": "user",
    "methods": {},
    "version": 1
  }
}