{
  "contractName": "HeymateOffer",
  "abi": [
    {
      "inputs": [],
      "stateMutability": "nonpayable",
      "type": "constructor"
    },
    {
      "anonymous": false,
      "inputs": [
        {
          "indexed": false,
          "internalType": "bytes32",
          "name": "_tradeHash",
          "type": "bytes32"
        }
      ],
      "name": "CancelledByConsumer",
      "type": "event"
    },
    {
      "anonymous": false,
      "inputs": [
        {
          "indexed": false,
          "internalType": "bytes32",
          "name": "_tradeHash",
          "type": "bytes32"
        }
      ],
      "name": "CancelledByServiceProvider",
      "type": "event"
    },
    {
      "anonymous": false,
      "inputs": [
        {
          "indexed": false,
          "internalType": "bytes32",
          "name": "_tradeHash",
          "type": "bytes32"
        }
      ],
      "name": "Created",
      "type": "event"
    },
    {
      "anonymous": false,
      "inputs": [
        {
          "indexed": false,
          "internalType": "bytes32",
          "name": "_planHash",
          "type": "bytes32"
        }
      ],
      "name": "CreatedPlan",
      "type": "event"
    },
    {
      "anonymous": false,
      "inputs": [
        {
          "indexed": false,
          "internalType": "bytes32",
          "name": "_tradeHash",
          "type": "bytes32"
        }
      ],
      "name": "Released",
      "type": "event"
    },
    {
      "anonymous": false,
      "inputs": [
        {
          "indexed": false,
          "internalType": "bytes32",
          "name": "_tradeHash",
          "type": "bytes32"
        }
      ],
      "name": "StartService",
      "type": "event"
    },
    {
      "inputs": [],
      "name": "cancellationValueDeposit",
      "outputs": [
        {
          "internalType": "uint256",
          "name": "",
          "type": "uint256"
        }
      ],
      "stateMutability": "view",
      "type": "function"
    },
    {
      "inputs": [],
      "name": "consumer",
      "outputs": [
        {
          "internalType": "address",
          "name": "",
          "type": "address"
        }
      ],
      "stateMutability": "view",
      "type": "function"
    },
    {
      "inputs": [],
      "name": "delayCompensation",
      "outputs": [
        {
          "internalType": "uint256",
          "name": "",
          "type": "uint256"
        }
      ],
      "stateMutability": "view",
      "type": "function"
    },
    {
      "inputs": [],
      "name": "feesAvailableForWithdraw",
      "outputs": [
        {
          "internalType": "uint256",
          "name": "",
          "type": "uint256"
        }
      ],
      "stateMutability": "view",
      "type": "function"
    },
    {
      "inputs": [
        {
          "internalType": "bytes32",
          "name": "",
          "type": "bytes32"
        }
      ],
      "name": "offers",
      "outputs": [
        {
          "internalType": "bool",
          "name": "exists",
          "type": "bool"
        },
        {
          "internalType": "uint32",
          "name": "serviceStartTime",
          "type": "uint32"
        },
        {
          "internalType": "uint256",
          "name": "initialDepositValue",
          "type": "uint256"
        },
        {
          "internalType": "uint256",
          "name": "remainingValue",
          "type": "uint256"
        },
        {
          "internalType": "uint32",
          "name": "slotTime",
          "type": "uint32"
        },
        {
          "internalType": "uint32",
          "name": "tradeStartTime",
          "type": "uint32"
        },
        {
          "internalType": "uint32",
          "name": "cancelHourVar1",
          "type": "uint32"
        },
        {
          "internalType": "uint32",
          "name": "cancelHourVar1Percen",
          "type": "uint32"
        },
        {
          "internalType": "uint32",
          "name": "cancelHourVar2",
          "type": "uint32"
        },
        {
          "internalType": "uint32",
          "name": "cancelHourVar2Percen",
          "type": "uint32"
        },
        {
          "internalType": "uint32",
          "name": "delayHour",
          "type": "uint32"
        },
        {
          "internalType": "uint32",
          "name": "delayHourPercen",
          "type": "uint32"
        },
        {
          "internalType": "uint256",
          "name": "rewardValue",
          "type": "uint256"
        },
        {
          "internalType": "uint32",
          "name": "currencyId",
          "type": "uint32"
        }
      ],
      "stateMutability": "view",
      "type": "function"
    },
    {
      "inputs": [],
      "name": "owner",
      "outputs": [
        {
          "internalType": "address",
          "name": "",
          "type": "address"
        }
      ],
      "stateMutability": "view",
      "type": "function"
    },
    {
      "inputs": [],
      "name": "planHash",
      "outputs": [
        {
          "internalType": "bytes32",
          "name": "",
          "type": "bytes32"
        }
      ],
      "stateMutability": "view",
      "type": "function"
    },
    {
      "inputs": [
        {
          "internalType": "bytes32",
          "name": "",
          "type": "bytes32"
        }
      ],
      "name": "plans",
      "outputs": [
        {
          "internalType": "bool",
          "name": "exists",
          "type": "bool"
        },
        {
          "internalType": "uint256",
          "name": "planType",
          "type": "uint256"
        },
        {
          "internalType": "uint256",
          "name": "amountPerSession",
          "type": "uint256"
        },
        {
          "internalType": "uint256",
          "name": "subScriptionType",
          "type": "uint256"
        },
        {
          "internalType": "uint256",
          "name": "totalBundles",
          "type": "uint256"
        },
        {
          "internalType": "uint256",
          "name": "availableBundles",
          "type": "uint256"
        },
        {
          "internalType": "uint32",
          "name": "currencyId",
          "type": "uint32"
        }
      ],
      "stateMutability": "view",
      "type": "function"
    },
    {
      "inputs": [],
      "name": "releaseAmount",
      "outputs": [
        {
          "internalType": "uint256",
          "name": "",
          "type": "uint256"
        }
      ],
      "stateMutability": "view",
      "type": "function"
    },
    {
      "inputs": [],
      "name": "serviceProvider",
      "outputs": [
        {
          "internalType": "address",
          "name": "",
          "type": "address"
        }
      ],
      "stateMutability": "view",
      "type": "function"
    },
    {
      "inputs": [],
      "name": "totalFees",
      "outputs": [
        {
          "internalType": "uint256",
          "name": "",
          "type": "uint256"
        }
      ],
      "stateMutability": "view",
      "type": "function"
    },
    {
      "inputs": [],
      "name": "tradeHash",
      "outputs": [
        {
          "internalType": "bytes32",
          "name": "",
          "type": "bytes32"
        }
      ],
      "stateMutability": "view",
      "type": "function"
    },
    {
      "inputs": [
        {
          "internalType": "bytes32",
          "name": "identifier",
          "type": "bytes32"
        },
        {
          "internalType": "address payable",
          "name": "token",
          "type": "address"
        },
        {
          "internalType": "uint256",
          "name": "value",
          "type": "uint256"
        },
        {
          "internalType": "uint256",
          "name": "expirySeconds",
          "type": "uint256"
        },
        {
          "internalType": "address payable",
          "name": "paymentId",
          "type": "address"
        },
        {
          "internalType": "uint256",
          "name": "minAttestations",
          "type": "uint256"
        }
      ],
      "name": "escrowTransfer",
      "outputs": [
        {
          "internalType": "bool",
          "name": "",
          "type": "bool"
        }
      ],
      "stateMutability": "payable",
      "type": "function"
    },
    {
      "inputs": [
        {
          "internalType": "address",
          "name": "to",
          "type": "address"
        },
        {
          "internalType": "uint256",
          "name": "value",
          "type": "uint256"
        },
        {
          "internalType": "uint32",
          "name": "currencyId",
          "type": "uint32"
        }
      ],
      "name": "transferAmount",
      "outputs": [
        {
          "internalType": "bool",
          "name": "",
          "type": "bool"
        }
      ],
      "stateMutability": "nonpayable",
      "type": "function"
    },
    {
      "inputs": [
        {
          "internalType": "address",
          "name": "spender",
          "type": "address"
        },
        {
          "internalType": "uint256",
          "name": "value",
          "type": "uint256"
        }
      ],
      "name": "approveTransfer",
      "outputs": [
        {
          "internalType": "bool",
          "name": "",
          "type": "bool"
        }
      ],
      "stateMutability": "nonpayable",
      "type": "function"
    },
    {
      "inputs": [
        {
          "internalType": "bytes16",
          "name": "_planID",
          "type": "bytes16"
        },
        {
          "internalType": "uint256",
          "name": "_planType",
          "type": "uint256"
        },
        {
          "internalType": "uint32[]",
          "name": "config",
          "type": "uint32[]"
        },
        {
          "internalType": "address payable[]",
          "name": "userAddress",
          "type": "address[]"
        },
        {
          "internalType": "bytes",
          "name": "signature",
          "type": "bytes"
        }
      ],
      "name": "createPlan",
      "outputs": [],
      "stateMutability": "nonpayable",
      "type": "function"
    },
    {
      "inputs": [
        {
          "internalType": "bytes16",
          "name": "_tradeID",
          "type": "bytes16"
        },
        {
          "internalType": "bytes16",
          "name": "_planID",
          "type": "bytes16"
        },
        {
          "internalType": "uint256",
          "name": "_amount",
          "type": "uint256"
        },
        {
          "internalType": "uint16",
          "name": "_fee",
          "type": "uint16"
        },
        {
          "internalType": "uint32",
          "name": "_expiry",
          "type": "uint32"
        },
        {
          "internalType": "uint32",
          "name": "_slotTime",
          "type": "uint32"
        },
        {
          "internalType": "uint256",
          "name": "_initialDeposit",
          "type": "uint256"
        },
        {
          "internalType": "address payable[]",
          "name": "userAddress",
          "type": "address[]"
        },
        {
          "internalType": "uint32[]",
          "name": "config",
          "type": "uint32[]"
        },
        {
          "internalType": "address payable[]",
          "name": "activeReferrers",
          "type": "address[]"
        },
        {
          "internalType": "address payable[]",
          "name": "newReferrers",
          "type": "address[]"
        },
        {
          "internalType": "bytes",
          "name": "signature",
          "type": "bytes"
        }
      ],
      "name": "createOffer",
      "outputs": [],
      "stateMutability": "payable",
      "type": "function"
    },
    {
      "inputs": [
        {
          "internalType": "bytes32",
          "name": "hash",
          "type": "bytes32"
        }
      ],
      "name": "prefixed",
      "outputs": [
        {
          "internalType": "bytes32",
          "name": "",
          "type": "bytes32"
        }
      ],
      "stateMutability": "pure",
      "type": "function"
    },
    {
      "inputs": [
        {
          "internalType": "bytes16",
          "name": "_tradeID",
          "type": "bytes16"
        },
        {
          "internalType": "address",
          "name": "_serviceProvider",
          "type": "address"
        },
        {
          "internalType": "address",
          "name": "_consumer",
          "type": "address"
        },
        {
          "internalType": "uint256",
          "name": "_amount",
          "type": "uint256"
        },
        {
          "internalType": "uint16",
          "name": "_fee",
          "type": "uint16"
        }
      ],
      "name": "startService",
      "outputs": [
        {
          "internalType": "bool",
          "name": "",
          "type": "bool"
        }
      ],
      "stateMutability": "nonpayable",
      "type": "function"
    },
    {
      "inputs": [
        {
          "internalType": "bytes16",
          "name": "_tradeID",
          "type": "bytes16"
        },
        {
          "internalType": "address payable",
          "name": "_serviceProvider",
          "type": "address"
        },
        {
          "internalType": "address payable",
          "name": "_consumer",
          "type": "address"
        },
        {
          "internalType": "uint256",
          "name": "_amount",
          "type": "uint256"
        },
        {
          "internalType": "uint16",
          "name": "_fee",
          "type": "uint16"
        }
      ],
      "name": "release",
      "outputs": [
        {
          "internalType": "bool",
          "name": "",
          "type": "bool"
        }
      ],
      "stateMutability": "payable",
      "type": "function"
    },
    {
      "inputs": [
        {
          "internalType": "bytes16",
          "name": "_tradeID",
          "type": "bytes16"
        },
        {
          "internalType": "address payable",
          "name": "_serviceProvider",
          "type": "address"
        },
        {
          "internalType": "address payable",
          "name": "_consumer",
          "type": "address"
        },
        {
          "internalType": "uint256",
          "name": "_amount",
          "type": "uint256"
        },
        {
          "internalType": "uint16",
          "name": "_fee",
          "type": "uint16"
        }
      ],
      "name": "consumerCancel",
      "outputs": [
        {
          "internalType": "bool",
          "name": "",
          "type": "bool"
        }
      ],
      "stateMutability": "nonpayable",
      "type": "function"
    },
    {
      "inputs": [
        {
          "internalType": "bytes16",
          "name": "_tradeID",
          "type": "bytes16"
        },
        {
          "internalType": "address",
          "name": "_serviceProvider",
          "type": "address"
        },
        {
          "internalType": "address payable",
          "name": "_consumer",
          "type": "address"
        },
        {
          "internalType": "uint256",
          "name": "_amount",
          "type": "uint256"
        },
        {
          "internalType": "uint16",
          "name": "_fee",
          "type": "uint16"
        }
      ],
      "name": "serviceProviderCancel",
      "outputs": [
        {
          "internalType": "bool",
          "name": "",
          "type": "bool"
        }
      ],
      "stateMutability": "nonpayable",
      "type": "function"
    },
    {
      "inputs": [
        {
          "internalType": "bytes16",
          "name": "_planID",
          "type": "bytes16"
        },
        {
          "internalType": "address",
          "name": "_serviceProvider",
          "type": "address"
        },
        {
          "internalType": "address payable",
          "name": "_consumer",
          "type": "address"
        }
      ],
      "name": "subscriptionPayment",
      "outputs": [
        {
          "internalType": "bool",
          "name": "",
          "type": "bool"
        }
      ],
      "stateMutability": "nonpayable",
      "type": "function"
    },
    {
      "inputs": [
        {
          "internalType": "bytes16",
          "name": "_planID",
          "type": "bytes16"
        },
        {
          "internalType": "address",
          "name": "_serviceProvider",
          "type": "address"
        },
        {
          "internalType": "address payable",
          "name": "_consumer",
          "type": "address"
        }
      ],
      "name": "cancelSubscription",
      "outputs": [
        {
          "internalType": "bool",
          "name": "",
          "type": "bool"
        }
      ],
      "stateMutability": "nonpayable",
      "type": "function"
    },
    {
      "inputs": [
        {
          "internalType": "address payable",
          "name": "_to",
          "type": "address"
        },
        {
          "internalType": "uint256",
          "name": "_amount",
          "type": "uint256"
        }
      ],
      "name": "withdrawFees",
      "outputs": [],
      "stateMutability": "nonpayable",
      "type": "function"
    },
    {
      "inputs": [
        {
          "internalType": "address",
          "name": "_newOwner",
          "type": "address"
        }
      ],
      "name": "setOwner",
      "outputs": [],
      "stateMutability": "nonpayable",
      "type": "function"
    }
  ],
  "bytecode": "0x608060405273874069fa1eb16d44d622f2e0ca25eea172369bc1600c60006101000a81548173ffffffffffffffffffffffffffffffffffffffff021916908373ffffffffffffffffffffffffffffffffffffffff1602179055507310c892a6ec43a53e45d0b916b4b7d383b1b78c0f600d60006101000a81548173ffffffffffffffffffffffffffffffffffffffff021916908373ffffffffffffffffffffffffffffffffffffffff16021790555073b07e10c5837c282209c6b9b3de0edbef16319a37600e60006101000a81548173ffffffffffffffffffffffffffffffffffffffff021916908373ffffffffffffffffffffffffffffffffffffffff16021790555034801561010f57600080fd5b50336000806101000a81548173ffffffffffffffffffffffffffffffffffffffff021916908373ffffffffffffffffffffffffffffffffffffffff160217905550613dc48061015f6000396000f3fe6080604052600436106101815760003560e01c80639a5be788116100d1578063c062dc5f1161008a578063e9600f1211610064578063e9600f1214610c65578063f02711e614610d14578063f34b5f6414610d3f578063fa02c4b7146110c757610181565b8063c062dc5f14610b8e578063d2e42e1114610bb9578063de5785d514610c3a57610181565b80639a5be788146108ce578063a287b802146108f9578063a382c39d146109b5578063aa4f265314610a71578063ad3b1b4714610af2578063b4fd729614610b4d57610181565b8063342e9e551161013e5780634db9afec116101185780634db9afec1461077f5780637aaa861b146107aa5780638d69e95e1461084c5780638da5cb5b1461088d57610181565b8063342e9e55146103c457806344787df514610480578063474d3ff01461069757610181565b80631178456e146101865780631193c0fb1461022a57806313114a9d146102ce57806313af4035146102f957806314afb6331461034a5780631f27571314610375575b600080fd5b34801561019257600080fd5b50610212600480360360608110156101a957600080fd5b8101908080356fffffffffffffffffffffffffffffffff19169060200190929190803573ffffffffffffffffffffffffffffffffffffffff169060200190929190803573ffffffffffffffffffffffffffffffffffffffff169060200190929190505050611138565b60405180821515815260200191505060405180910390f35b34801561023657600080fd5b506102b66004803603606081101561024d57600080fd5b8101908080356fffffffffffffffffffffffffffffffff19169060200190929190803573ffffffffffffffffffffffffffffffffffffffff169060200190929190803573ffffffffffffffffffffffffffffffffffffffff16906020019092919050505061114e565b60405180821515815260200191505060405180910390f35b3480156102da57600080fd5b506102e3611164565b6040518082815260200191505060405180910390f35b34801561030557600080fd5b506103486004803603602081101561031c57600080fd5b81019080803573ffffffffffffffffffffffffffffffffffffffff16906020019092919050505061116a565b005b34801561035657600080fd5b5061035f611205565b6040518082815260200191505060405180910390f35b34801561038157600080fd5b506103ae6004803603602081101561039857600080fd5b810190808035906020019092919050505061120b565b6040518082815260200191505060405180910390f35b3480156103d057600080fd5b50610468600480360360a08110156103e757600080fd5b8101908080356fffffffffffffffffffffffffffffffff19169060200190929190803573ffffffffffffffffffffffffffffffffffffffff169060200190929190803573ffffffffffffffffffffffffffffffffffffffff16906020019092919080359060200190929190803561ffff169060200190929190505050611263565b60405180821515815260200191505060405180910390f35b34801561048c57600080fd5b50610695600480360360a08110156104a357600080fd5b8101908080356fffffffffffffffffffffffffffffffff1916906020019092919080359060200190929190803590602001906401000000008111156104e757600080fd5b8201836020820111156104f957600080fd5b8035906020019184602083028401116401000000008311171561051b57600080fd5b919080806020026020016040519081016040528093929190818152602001838360200280828437600081840152601f19601f8201169050808301925050505050505091929192908035906020019064010000000081111561057b57600080fd5b82018360208201111561058d57600080fd5b803590602001918460208302840111640100000000831117156105af57600080fd5b919080806020026020016040519081016040528093929190818152602001838360200280828437600081840152601f19601f8201169050808301925050505050505091929192908035906020019064010000000081111561060f57600080fd5b82018360208201111561062157600080fd5b8035906020019184600183028401116401000000008311171561064357600080fd5b91908080601f016020809104026020016040519081016040528093929190818152602001838380828437600081840152601f19601f82011690508083019250505050505050919291929050505061127d565b005b3480156106a357600080fd5b506106d0600480360360208110156106ba57600080fd5b8101908080359060200190929190505050611563565b604051808f151581526020018e63ffffffff1681526020018d81526020018c81526020018b63ffffffff1681526020018a63ffffffff1681526020018963ffffffff1681526020018863ffffffff1681526020018763ffffffff1681526020018663ffffffff1681526020018563ffffffff1681526020018463ffffffff1681526020018381526020018263ffffffff1681526020019e50505050505050505050505050505060405180910390f35b34801561078b57600080fd5b5061079461167c565b6040518082815260200191505060405180910390f35b610834600480360360c08110156107c057600080fd5b8101908080359060200190929190803573ffffffffffffffffffffffffffffffffffffffff1690602001909291908035906020019092919080359060200190929190803573ffffffffffffffffffffffffffffffffffffffff16906020019092919080359060200190929190505050611682565b60405180821515815260200191505060405180910390f35b34801561085857600080fd5b50610861611799565b604051808273ffffffffffffffffffffffffffffffffffffffff16815260200191505060405180910390f35b34801561089957600080fd5b506108a26117bf565b604051808273ffffffffffffffffffffffffffffffffffffffff16815260200191505060405180910390f35b3480156108da57600080fd5b506108e36117e3565b6040518082815260200191505060405180910390f35b34801561090557600080fd5b5061099d600480360360a081101561091c57600080fd5b8101908080356fffffffffffffffffffffffffffffffff19169060200190929190803573ffffffffffffffffffffffffffffffffffffffff169060200190929190803573ffffffffffffffffffffffffffffffffffffffff16906020019092919080359060200190929190803561ffff1690602001909291905050506117e9565b60405180821515815260200191505060405180910390f35b3480156109c157600080fd5b50610a59600480360360a08110156109d857600080fd5b8101908080356fffffffffffffffffffffffffffffffff19169060200190929190803573ffffffffffffffffffffffffffffffffffffffff169060200190929190803573ffffffffffffffffffffffffffffffffffffffff16906020019092919080359060200190929190803561ffff169060200190929190505050611803565b60405180821515815260200191505060405180910390f35b348015610a7d57600080fd5b50610aaa60048036036020811015610a9457600080fd5b810190808035906020019092919050505061181d565b6040518088151581526020018781526020018681526020018581526020018481526020018381526020018263ffffffff16815260200197505050505050505060405180910390f35b348015610afe57600080fd5b50610b4b60048036036040811015610b1557600080fd5b81019080803573ffffffffffffffffffffffffffffffffffffffff1690602001909291908035906020019092919050505061187c565b005b348015610b5957600080fd5b50610b6261192f565b604051808273ffffffffffffffffffffffffffffffffffffffff16815260200191505060405180910390f35b348015610b9a57600080fd5b50610ba3611955565b6040518082815260200191505060405180910390f35b348015610bc557600080fd5b50610c2260048036036060811015610bdc57600080fd5b81019080803573ffffffffffffffffffffffffffffffffffffffff16906020019092919080359060200190929190803563ffffffff16906020019092919050505061195b565b60405180821515815260200191505060405180910390f35b348015610c4657600080fd5b50610c4f611a89565b6040518082815260200191505060405180910390f35b610cfc600480360360a0811015610c7b57600080fd5b8101908080356fffffffffffffffffffffffffffffffff19169060200190929190803573ffffffffffffffffffffffffffffffffffffffff169060200190929190803573ffffffffffffffffffffffffffffffffffffffff16906020019092919080359060200190929190803561ffff169060200190929190505050611a8f565b60405180821515815260200191505060405180910390f35b348015610d2057600080fd5b50610d29611aa9565b6040518082815260200191505060405180910390f35b6110c56004803603610180811015610d5657600080fd5b8101908080356fffffffffffffffffffffffffffffffff1916906020019092919080356fffffffffffffffffffffffffffffffff1916906020019092919080359060200190929190803561ffff169060200190929190803563ffffffff169060200190929190803563ffffffff1690602001909291908035906020019092919080359060200190640100000000811115610def57600080fd5b820183602082011115610e0157600080fd5b80359060200191846020830284011164010000000083111715610e2357600080fd5b919080806020026020016040519081016040528093929190818152602001838360200280828437600081840152601f19601f82011690508083019250505050505050919291929080359060200190640100000000811115610e8357600080fd5b820183602082011115610e9557600080fd5b80359060200191846020830284011164010000000083111715610eb757600080fd5b919080806020026020016040519081016040528093929190818152602001838360200280828437600081840152601f19601f82011690508083019250505050505050919291929080359060200190640100000000811115610f1757600080fd5b820183602082011115610f2957600080fd5b80359060200191846020830284011164010000000083111715610f4b57600080fd5b919080806020026020016040519081016040528093929190818152602001838360200280828437600081840152601f19601f82011690508083019250505050505050919291929080359060200190640100000000811115610fab57600080fd5b820183602082011115610fbd57600080fd5b80359060200191846020830284011164010000000083111715610fdf57600080fd5b919080806020026020016040519081016040528093929190818152602001838360200280828437600081840152601f19601f8201169050808301925050505050505091929192908035906020019064010000000081111561103f57600080fd5b82018360208201111561105157600080fd5b8035906020019184600183028401116401000000008311171561107357600080fd5b91908080601f016020809104026020016040519081016040528093929190818152602001838380828437600081840152601f19601f820116905080830192505050505050509192919290505050611aaf565b005b3480156110d357600080fd5b50611120600480360360408110156110ea57600080fd5b81019080803573ffffffffffffffffffffffffffffffffffffffff169060200190929190803590602001909291905050506126b5565b60405180821515815260200191505060405180910390f35b6000611145848484612784565b90509392505050565b600061115b8484846128a8565b90509392505050565b60075481565b60008054906101000a900473ffffffffffffffffffffffffffffffffffffffff1673ffffffffffffffffffffffffffffffffffffffff163373ffffffffffffffffffffffffffffffffffffffff16146111c257600080fd5b806000806101000a81548173ffffffffffffffffffffffffffffffffffffffff021916908373ffffffffffffffffffffffffffffffffffffffff16021790555050565b60095481565b60008160405160200180807f19457468657265756d205369676e6564204d6573736167653a0a333200000000815250601c01828152602001915050604051602081830303815290604052805190602001209050919050565b600061127286868686866129a8565b905095945050505050565b6000858360008151811061128d57fe5b6020026020010151846001815181106112a257fe5b602002602001015160405160200180846fffffffffffffffffffffffffffffffff191681526010018373ffffffffffffffffffffffffffffffffffffffff1660601b81526014018273ffffffffffffffffffffffffffffffffffffffff1660601b8152601401935050505060405160208183030381529060405280519060200120905060008360008151811061133457fe5b60200260200101518560008151811061134957fe5b60200260200101518660018151811061135e57fe5b6020026020010151604051602001808473ffffffffffffffffffffffffffffffffffffffff1660601b81526014018363ffffffff1660e01b81526004018263ffffffff1660e01b8152600401935050505060405160208183030381529060405280519060200120905060006113d28261120b565b90506040518060e00160405280600115158152602001888152602001876000815181106113fb57fe5b602002602001015163ffffffff1681526020018760018151811061141b57fe5b602002602001015163ffffffff1681526020018760028151811061143b57fe5b602002602001015163ffffffff1681526020018760028151811061145b57fe5b602002602001015163ffffffff1681526020018760058151811061147b57fe5b602002602001015163ffffffff16815250600b600085815260200190815260200160002060008201518160000160006101000a81548160ff0219169083151502179055506020820151816001015560408201518160020155606082015181600301556080820151816004015560a0820151816005015560c08201518160060160006101000a81548163ffffffff021916908363ffffffff160217905550905050826009819055507fa43f281bb61897e6caa9062cfbab67401b17a5e6c6d800f5313c90f0d53d2fd6836040518082815260200191505060405180910390a15050505050505050565b600a6020528060005260406000206000915090508060000160009054906101000a900460ff16908060000160019054906101000a900463ffffffff16908060010154908060020154908060030160009054906101000a900463ffffffff16908060030160049054906101000a900463ffffffff16908060030160089054906101000a900463ffffffff169080600301600c9054906101000a900463ffffffff16908060030160109054906101000a900463ffffffff16908060030160149054906101000a900463ffffffff16908060030160189054906101000a900463ffffffff169080600301601c9054906101000a900463ffffffff16908060040154908060050160009054906101000a900463ffffffff1690508e565b60035481565b600080600e60009054906101000a900473ffffffffffffffffffffffffffffffffffffffff1690508073ffffffffffffffffffffffffffffffffffffffff1663702cb75d8989898989896040518763ffffffff1660e01b8152600401808781526020018673ffffffffffffffffffffffffffffffffffffffff1681526020018581526020018481526020018373ffffffffffffffffffffffffffffffffffffffff1681526020018281526020019650505050505050602060405180830381600087803b15801561175157600080fd5b505af1158015611765573d6000803e3d6000fd5b505050506040513d602081101561177b57600080fd5b81019080805190602001909291905050509150509695505050505050565b600160009054906101000a900473ffffffffffffffffffffffffffffffffffffffff1681565b60008054906101000a900473ffffffffffffffffffffffffffffffffffffffff1681565b60055481565b60006117f88686868686612c1c565b905095945050505050565b600061181286868686866131e7565b905095945050505050565b600b6020528060005260406000206000915090508060000160009054906101000a900460ff16908060010154908060020154908060030154908060040154908060050154908060060160009054906101000a900463ffffffff16905087565b60008054906101000a900473ffffffffffffffffffffffffffffffffffffffff1673ffffffffffffffffffffffffffffffffffffffff163373ffffffffffffffffffffffffffffffffffffffff16146118d457600080fd5b806008600082825403925050819055508173ffffffffffffffffffffffffffffffffffffffff166108fc829081150290604051600060405180830381858888f1935050505015801561192a573d6000803e3d6000fd5b505050565b600260009054906101000a900473ffffffffffffffffffffffffffffffffffffffff1681565b60065481565b60008060018363ffffffff16141561199757600c60009054906101000a900473ffffffffffffffffffffffffffffffffffffffff1690506119cd565b60028363ffffffff1614156119cc57600d60009054906101000a900473ffffffffffffffffffffffffffffffffffffffff1690505b5b60008190508073ffffffffffffffffffffffffffffffffffffffff1663a9059cbb87876040518363ffffffff1660e01b8152600401808373ffffffffffffffffffffffffffffffffffffffff16815260200182815260200192505050602060405180830381600087803b158015611a4357600080fd5b505af1158015611a57573d6000803e3d6000fd5b505050506040513d6020811015611a6d57600080fd5b8101908080519060200190929190505050925050509392505050565b60085481565b6000611a9e86868686866135ad565b905095945050505050565b60045481565b60008c86600081518110611abf57fe5b602002602001015187600181518110611ad457fe5b60200260200101518d8d60405160200180866fffffffffffffffffffffffffffffffff191681526010018573ffffffffffffffffffffffffffffffffffffffff1660601b81526014018473ffffffffffffffffffffffffffffffffffffffff1660601b81526014018381526020018261ffff1660f01b815260020195505050505050604051602081830303815290604052805190602001209050600a600082815260200190815260200160002060000160009054906101000a900460ff1615611c05576040517f08c379a00000000000000000000000000000000000000000000000000000000081526004018080602001828103825260138152602001807f547261646520616c72656164792065786973740000000000000000000000000081525060200191505060405180910390fd5b8863ffffffff164210611c80576040517f08c379a000000000000000000000000000000000000000000000000000000000815260040180806020018281038252600e8152602001807f4f6666657220657870697265642100000000000000000000000000000000000081525060200191505060405180910390fd5b600042905060008060009050611c94613c35565b8e8160000181815250508f81602001906fffffffffffffffffffffffffffffffff191690816fffffffffffffffffffffffffffffffff19168152505089600081518110611cdd57fe5b6020026020010151816040019073ffffffffffffffffffffffffffffffffffffffff16908173ffffffffffffffffffffffffffffffffffffffff168152505089600181518110611d2957fe5b6020026020010151816060019073ffffffffffffffffffffffffffffffffffffffff16908173ffffffffffffffffffffffffffffffffffffffff168152505060008a600081518110611d7757fe5b602002602001015182600001518d8c604051602001808573ffffffffffffffffffffffffffffffffffffffff1660601b8152601401848152602001838152602001828051906020019060200280838360005b83811015611de4578082015181840152602081019050611dc9565b505050509050019450505050506040516020818303038152906040528051906020012090506000611e148261120b565b9050611e1e613c9c565b6000611e37856020015186604001518760600151613a65565b91506040518060e00160405290816000820160009054906101000a900460ff1615151515815260200160018201548152602001600282015481526020016003820154815260200160048201548152602001600582015481526020016006820160009054906101000a900463ffffffff1663ffffffff1663ffffffff1681525050915060011515826000015115151415611f83576000600b60008381526020019081526020016000206005015411611f56576040517f08c379a00000000000000000000000000000000000000000000000000000000081526004018080602001828103825260158152602001807f4e6f20617661696c61626c652062756e646c65732e000000000000000000000081525060200191505060405180910390fd5b806009819055506001600b6000838152602001908152602001600020600501600082825403925050819055505b505060008b600081518110611f9457fe5b602002602001015163ffffffff161115611fea57603c8b600081518110611fb757fe5b60200260200101510286018b600081518110611fcf57fe5b602002602001019063ffffffff16908163ffffffff16815250505b60008b600281518110611ff957fe5b602002602001015163ffffffff16111561206357603c8b60028151811061201c57fe5b6020026020010151028b60008151811061203257fe5b6020026020010151018b60028151811061204857fe5b602002602001019063ffffffff16908163ffffffff16815250505b60008b60048151811061207257fe5b602002602001015163ffffffff1611156120c657603c8b60048151811061209557fe5b6020026020010151028b6004815181106120ab57fe5b602002602001019063ffffffff16908163ffffffff16815250505b60048b6006815181106120d557fe5b602002602001015163ffffffff16141561216b5760008b6007815181106120f857fe5b602002602001015163ffffffff16111561216a5760648b60078151811061211b57fe5b602002602001015163ffffffff168460000151028161213657fe5b04945084836000015103836000018181525050600089518b5101905060008111156121685780868161216457fe5b0494505b505b5b60008a5111156121c35760005b8a518110156121c1576121b38b828151811061219057fe5b6020026020010151868e6008815181106121a657fe5b602002602001015161195b565b508080600101915050612178565b505b600089511115612272576121fc600e60009054906101000a900473ffffffffffffffffffffffffffffffffffffffff168a5186026126b5565b5060005b8951811015612270576122627f307830000000000000000000000000000000000000000000000000000000000073874069fa1eb16d44d622f2e0ca25eea172369bc18762093a808e868151811061225357fe5b60200260200101516000611682565b508080600101915050612200565b505b604051806101c00160405280600115158152602001600063ffffffff16815260200160008152602001600081526020018f63ffffffff1681526020018763ffffffff1681526020018c6000815181106122c757fe5b602002602001015163ffffffff1681526020018c6001815181106122e757fe5b602002602001015163ffffffff1681526020018c60028151811061230757fe5b602002602001015163ffffffff1681526020018c60038151811061232757fe5b602002602001015163ffffffff1681526020018c60048151811061234757fe5b602002602001015163ffffffff1681526020018c60058151811061236757fe5b602002602001015163ffffffff1681526020018681526020018c60088151811061238d57fe5b602002602001015163ffffffff16815250600a600089815260200190815260200160002060008201518160000160006101000a81548160ff02191690831515021790555060208201518160000160016101000a81548163ffffffff021916908363ffffffff160217905550604082015181600101556060820151816002015560808201518160030160006101000a81548163ffffffff021916908363ffffffff16021790555060a08201518160030160046101000a81548163ffffffff021916908363ffffffff16021790555060c08201518160030160086101000a81548163ffffffff021916908363ffffffff16021790555060e082015181600301600c6101000a81548163ffffffff021916908363ffffffff1602179055506101008201518160030160106101000a81548163ffffffff021916908363ffffffff1602179055506101208201518160030160146101000a81548163ffffffff021916908363ffffffff1602179055506101408201518160030160186101000a81548163ffffffff021916908363ffffffff16021790555061016082015181600301601c6101000a81548163ffffffff021916908363ffffffff16021790555061018082015181600401556101a08201518160050160006101000a81548163ffffffff021916908363ffffffff160217905550905050866003819055508260000151600a60008981526020019081526020016000206002018190555060008d1115612669576125bb83600001518e613b09565b600a600089815260200190815260200160002060010181905550600a600088815260200190815260200160002060010154836000015103600a6000898152602001908152602001600020600201819055506126678c60008151811061261c57fe5b6020026020010151600a60008a815260200190815260200160002060010154600a60008b815260200190815260200160002060050160009054906101000a900463ffffffff1661195b565b505b7f102d25c49d33fcdb8976a3f2744e0785c98d9e43b88364859e6aec4ae82eff5c876040518082815260200191505060405180910390a150505050505050505050505050505050505050565b60008073874069fa1eb16d44d622f2e0ca25eea172369bc190508073ffffffffffffffffffffffffffffffffffffffff1663095ea7b385856040518363ffffffff1660e01b8152600401808373ffffffffffffffffffffffffffffffffffffffff16815260200182815260200192505050602060405180830381600087803b15801561274057600080fd5b505af1158015612754573d6000803e3d6000fd5b505050506040513d602081101561276a57600080fd5b810190808051906020019092919050505091505092915050565b600061278e613c9c565b600061279b868686613a65565b91506040518060e00160405290816000820160009054906101000a900460ff1615151515815260200160018201548152602001600282015481526020016003820154815260200160048201548152602001600582015481526020016006820160009054906101000a900463ffffffff1663ffffffff1663ffffffff168152505091508160000151612831576000925050506128a1565b600b6000828152602001908152602001600020600080820160006101000a81549060ff0219169055600182016000905560028201600090556003820160009055600482016000905560058201600090556006820160006101000a81549063ffffffff021916905550506001925050505b9392505050565b60006128b2613c9c565b60006128bf868686613a65565b91506040518060e00160405290816000820160009054906101000a900460ff1615151515815260200160018201548152602001600282015481526020016003820154815260200160048201548152602001600582015481526020016006820160009054906101000a900463ffffffff1663ffffffff1663ffffffff168152505091506001151582600001511515141561299b5761299985600b600084815260200190815260200160002060020154600b600085815260200190815260200160002060060160009054906101000a900463ffffffff1661195b565b505b6001925050509392505050565b60006129b2613ce1565b60006129c18888888888613b25565b9150604051806101c00160405290816000820160009054906101000a900460ff161515151581526020016000820160019054906101000a900463ffffffff1663ffffffff1663ffffffff16815260200160018201548152602001600282015481526020016003820160009054906101000a900463ffffffff1663ffffffff1663ffffffff1681526020016003820160049054906101000a900463ffffffff1663ffffffff1663ffffffff1681526020016003820160089054906101000a900463ffffffff1663ffffffff1663ffffffff16815260200160038201600c9054906101000a900463ffffffff1663ffffffff1663ffffffff1681526020016003820160109054906101000a900463ffffffff1663ffffffff1663ffffffff1681526020016003820160149054906101000a900463ffffffff1663ffffffff1663ffffffff1681526020016003820160189054906101000a900463ffffffff1663ffffffff1663ffffffff16815260200160038201601c9054906101000a900463ffffffff1663ffffffff1663ffffffff168152602001600482015481526020016005820160009054906101000a900463ffffffff1663ffffffff1663ffffffff168152505091508160000151612b9a57600092505050612c13565b600042905080600a600084815260200190815260200160002060000160016101000a81548163ffffffff021916908363ffffffff1602179055507fd324065b90f3e4348de67de1eb4a0a3c0c86b12203ed55d27b62ca4c5ac70426826040518082815260200191505060405180910390a1600193505050505b95945050505050565b6000612c26613ce1565b6000612c358888888888613b25565b9150604051806101c00160405290816000820160009054906101000a900460ff161515151581526020016000820160019054906101000a900463ffffffff1663ffffffff1663ffffffff16815260200160018201548152602001600282015481526020016003820160009054906101000a900463ffffffff1663ffffffff1663ffffffff1681526020016003820160049054906101000a900463ffffffff1663ffffffff1663ffffffff1681526020016003820160089054906101000a900463ffffffff1663ffffffff1663ffffffff16815260200160038201600c9054906101000a900463ffffffff1663ffffffff1663ffffffff1681526020016003820160109054906101000a900463ffffffff1663ffffffff1663ffffffff1681526020016003820160149054906101000a900463ffffffff1663ffffffff1663ffffffff1681526020016003820160189054906101000a900463ffffffff1663ffffffff1663ffffffff16815260200160038201601c9054906101000a900463ffffffff1663ffffffff1663ffffffff168152602001600482015481526020016005820160009054906101000a900463ffffffff1663ffffffff1663ffffffff168152505091508160000151612e0e576000925050506131de565b600080429050600a600084815260200190815260200160002060030160049054906101000a900463ffffffff1663ffffffff168163ffffffff16118015612e875750600a600084815260200190815260200160002060030160089054906101000a900463ffffffff1663ffffffff168163ffffffff1611155b15612f1b576064600a6000858152602001908152602001600020600301600c9054906101000a900463ffffffff1663ffffffff16600a6000868152602001908152602001600020600201540281612eda57fe5b04915081600481905550612f16898388600a600088815260200190815260200160002060050160009054906101000a900463ffffffff16613be2565b61301f565b600a600084815260200190815260200160002060030160089054906101000a900463ffffffff1663ffffffff168163ffffffff16118015612f8e5750600a600084815260200190815260200160002060030160109054906101000a900463ffffffff1663ffffffff168163ffffffff1611155b1561301e576064600a600085815260200190815260200160002060030160149054906101000a900463ffffffff1663ffffffff16600a6000868152602001908152602001600020600201540281612fe157fe5b0491508160048190555061301d898388600a600088815260200190815260200160002060050160009054906101000a900463ffffffff16613be2565b5b5b600082600a600086815260200190815260200160002060020154039050806006819055507feb3068634ce36ec03afc4df3b2f8754e0cfcb6855df545b0d46dc593ce432116846040518082815260200191505060405180910390a16130ac898289600a600089815260200190815260200160002060050160009054906101000a900463ffffffff16613be2565b600a6000858152602001908152602001600020600080820160006101000a81549060ff02191690556000820160016101000a81549063ffffffff0219169055600182016000905560028201600090556003820160006101000a81549063ffffffff02191690556003820160046101000a81549063ffffffff02191690556003820160086101000a81549063ffffffff021916905560038201600c6101000a81549063ffffffff02191690556003820160106101000a81549063ffffffff02191690556003820160146101000a81549063ffffffff02191690556003820160186101000a81549063ffffffff021916905560038201601c6101000a81549063ffffffff021916905560048201600090556005820160006101000a81549063ffffffff021916905550506001955050505050505b95945050505050565b60006131f1613ce1565b60006132008888888888613b25565b9150604051806101c00160405290816000820160009054906101000a900460ff161515151581526020016000820160019054906101000a900463ffffffff1663ffffffff1663ffffffff16815260200160018201548152602001600282015481526020016003820160009054906101000a900463ffffffff1663ffffffff1663ffffffff1681526020016003820160049054906101000a900463ffffffff1663ffffffff1663ffffffff1681526020016003820160089054906101000a900463ffffffff1663ffffffff1663ffffffff16815260200160038201600c9054906101000a900463ffffffff1663ffffffff1663ffffffff1681526020016003820160109054906101000a900463ffffffff1663ffffffff1663ffffffff1681526020016003820160149054906101000a900463ffffffff1663ffffffff1663ffffffff1681526020016003820160189054906101000a900463ffffffff1663ffffffff1663ffffffff16815260200160038201601c9054906101000a900463ffffffff1663ffffffff1663ffffffff168152602001600482015481526020016005820160009054906101000a900463ffffffff1663ffffffff1663ffffffff1681525050915081600001516133d9576000925050506135a4565b7f7e1b8bd6ad2377f0ea22e09a00bc100cf198e951c58de7b23577d00d447d0f10816040518082815260200191505060405180910390a1600a60008281526020019081526020016000206002015460068190555061347586600a60008481526020019081526020016000206002015486600a600086815260200190815260200160002060050160009054906101000a900463ffffffff16613be2565b600a6000828152602001908152602001600020600080820160006101000a81549060ff02191690556000820160016101000a81549063ffffffff0219169055600182016000905560028201600090556003820160006101000a81549063ffffffff02191690556003820160046101000a81549063ffffffff02191690556003820160086101000a81549063ffffffff021916905560038201600c6101000a81549063ffffffff02191690556003820160106101000a81549063ffffffff02191690556003820160146101000a81549063ffffffff02191690556003820160186101000a81549063ffffffff021916905560038201601c6101000a81549063ffffffff021916905560048201600090556005820160006101000a81549063ffffffff021916905550506001925050505b95945050505050565b60006135b7613ce1565b60006135c68888888888613b25565b9150604051806101c00160405290816000820160009054906101000a900460ff161515151581526020016000820160019054906101000a900463ffffffff1663ffffffff1663ffffffff16815260200160018201548152602001600282015481526020016003820160009054906101000a900463ffffffff1663ffffffff1663ffffffff1681526020016003820160049054906101000a900463ffffffff1663ffffffff1663ffffffff1681526020016003820160089054906101000a900463ffffffff1663ffffffff1663ffffffff16815260200160038201600c9054906101000a900463ffffffff1663ffffffff1663ffffffff1681526020016003820160109054906101000a900463ffffffff1663ffffffff1663ffffffff1681526020016003820160149054906101000a900463ffffffff1663ffffffff1663ffffffff1681526020016003820160189054906101000a900463ffffffff1663ffffffff1663ffffffff16815260200160038201601c9054906101000a900463ffffffff1663ffffffff1663ffffffff168152602001600482015481526020016005820160009054906101000a900463ffffffff1663ffffffff1663ffffffff16815250509150816000015161379f57600092505050613a5c565b6000600a600083815260200190815260200160002060030160189054906101000a900463ffffffff16600a600084815260200190815260200160002060030160009054906101000a900463ffffffff160163ffffffff16600a600084815260200190815260200160002060000160019054906101000a900463ffffffff1663ffffffff16111561389e576064600a6000848152602001908152602001600020600301601c9054906101000a900463ffffffff1663ffffffff1687028161386157fe5b0490508060058190555061389d878287600a600087815260200190815260200160002060050160009054906101000a900463ffffffff16613be2565b5b600081600a600085815260200190815260200160002060020154039050806006819055507f6eec2dd2382427616d4ea7ef183b16091feac4e2e63c8b55f25215f132df8d14836040518082815260200191505060405180910390a161392b898288600a600088815260200190815260200160002060050160009054906101000a900463ffffffff16613be2565b600a6000848152602001908152602001600020600080820160006101000a81549060ff02191690556000820160016101000a81549063ffffffff0219169055600182016000905560028201600090556003820160006101000a81549063ffffffff02191690556003820160046101000a81549063ffffffff02191690556003820160086101000a81549063ffffffff021916905560038201600c6101000a81549063ffffffff02191690556003820160106101000a81549063ffffffff02191690556003820160146101000a81549063ffffffff02191690556003820160186101000a81549063ffffffff021916905560038201601c6101000a81549063ffffffff021916905560048201600090556005820160006101000a81549063ffffffff0219169055505060019450505050505b95945050505050565b600080600085858560405160200180846fffffffffffffffffffffffffffffffff191681526010018373ffffffffffffffffffffffffffffffffffffffff1660601b81526014018273ffffffffffffffffffffffffffffffffffffffff1660601b81526014019350505050604051602081830303815290604052805190602001209050600b6000828152602001908152602001600020819250925050935093915050565b600080606483850281613b1857fe5b0490508091505092915050565b6000806000878787878760405160200180866fffffffffffffffffffffffffffffffff191681526010018573ffffffffffffffffffffffffffffffffffffffff1660601b81526014018473ffffffffffffffffffffffffffffffffffffffff1660601b81526014018381526020018261ffff1660f01b815260020195505050505050604051602081830303815290604052805190602001209050600a60008281526020019081526020016000208192509250509550959350505050565b60006127108361ffff16850281613bf557fe5b04905080600781905550838185031115613c0f5750613c2f565b80600860008282540192505081905550613c2c858286038461195b565b50505b50505050565b60405180608001604052806000815260200160006fffffffffffffffffffffffffffffffff19168152602001600073ffffffffffffffffffffffffffffffffffffffff168152602001600073ffffffffffffffffffffffffffffffffffffffff1681525090565b6040518060e001604052806000151581526020016000815260200160008152602001600081526020016000815260200160008152602001600063ffffffff1681525090565b604051806101c00160405280600015158152602001600063ffffffff1681526020016000815260200160008152602001600063ffffffff168152602001600063ffffffff168152602001600063ffffffff168152602001600063ffffffff168152602001600063ffffffff168152602001600063ffffffff168152602001600063ffffffff168152602001600063ffffffff16815260200160008152602001600063ffffffff168152509056fea26469706673582212200329137f74f28f1c6b8256984efe65153852112ffbec85173d172c474124799864736f6c63430007040033",
  "immutableReferences": {},
  "source": "// SPDX-License-Identifier: HEYMATE\n// Deployed Address on 14th July 2021 - 0x361502b8138Dbaf5819401923f9446Fc01200C62\n// Updated the contract with currencyId (cUSD/cEUR) for all the transactions.  \n\npragma solidity ^0.7.4;\n\n/**\n@notice Celo Escrow contract is used to transfer tokens to the referrers \nwho are non-heymate users.\n\n@dev When the consumer buys the offer, the referral bonus is transferred. If the referrers are \nnot in the Heymate platform, we will transfer the tokens to the Celo escrow contract and lateron,\nusers can claim it. \n */\ncontract celoEscrowContract {\n    function transfer(\n        bytes32 identifier,\n        address token,\n        uint256 value,\n        uint256 expirySeconds,\n        address payable paymentId,\n        uint256 minAttestations\n    ) public returns (bool) {}\n}\n \n/**\n@notice Celo stableToken contract is for transferring the tokens to users.\n@dev approve function lets msg.sender to approve the escrow contract to transfer (EscrowTransfer)\n */\ncontract celoStableTokenContract {\n     function transfer(address to, uint256 value) public returns (bool) {}\n     function approve(address spender, uint256 value) public virtual returns (bool) {}\n}\n\n/**\n@notice Heymate Contract \n */\ncontract HeymateOffer {\n    address public owner;\n    address public serviceProvider;\n    address public consumer;\n    bytes32 public tradeHash;\n    uint256 public cancellationValueDeposit;\n    uint256 public delayCompensation;\n    uint256 public releaseAmount;\n    uint256 public totalFees;\n    uint256 public feesAvailableForWithdraw;\n    \n    bytes32 public planHash;\n    \n    event Created(bytes32 _tradeHash);\n    event StartService(bytes32 _tradeHash);\n    event Released(bytes32 _tradeHash);\n    event CancelledByServiceProvider(bytes32 _tradeHash);\n    event CancelledByConsumer(bytes32 _tradeHash);\n    \n    event CreatedPlan(bytes32 _planHash);\n\n    struct Offer {\n        bool exists;\n        uint32 serviceStartTime;\n        uint256 initialDepositValue;\n        uint256 remainingValue;\n        uint32 slotTime;\n        uint32 tradeStartTime;\n        uint32 cancelHourVar1;\n        uint32 cancelHourVar1Percen;\n        uint32 cancelHourVar2;\n        uint32 cancelHourVar2Percen;\n        uint32 delayHour;\n        uint32 delayHourPercen;\n        uint256 rewardValue;\n        uint32 currencyId;\n    }\n\n    struct offerInfo {\n        uint256 _amount;\n        bytes16 _planID;\n        address serviceProvider;\n        address consumer;\n    }\n    \n    struct Plan {\n        bool exists;\n        uint planType;   // BundleId /SubscriptionId\n        uint amountPerSession;\n        uint subScriptionType;\n        uint totalBundles;\n        uint availableBundles;\n        uint32 currencyId;\n    }\n \n    // Mapping of active trades. Key is a hash of the trade data\n    mapping(bytes32 => Offer) public offers;\n\n    mapping(bytes32 => Plan) public plans;\n\n     modifier onlyOwner() {\n        require(msg.sender == owner);\n        _;\n    }\n    \n    constructor() {\n    owner = msg.sender;\n    }\n\n    // Celo deployed contract address for Escrow and StableTokens\n    address cUSDTokenAddress = 0x874069Fa1Eb16D44d622F2e0Ca25eeA172369bC1;\n    address cEURTokenAddress = 0x10c892A6EC43a53E45D0B916B4b7D383B1b78C0F;\n    address celoEscrowContractAddress = 0xb07E10c5837c282209c6B9B3DE0eDBeF16319a37;\n    \n     // Escrow transfer for non-heymate users.\n     // To do\n    function escrowTransfer(\n        bytes32 identifier,\n        address payable token,\n        uint256 value,\n        uint256 expirySeconds,\n        address payable paymentId,\n        uint256 minAttestations\n    ) public payable returns (bool) {\n        celoEscrowContract c = celoEscrowContract(celoEscrowContractAddress);\n\n        return\n            c.transfer(\n                identifier,\n                token,\n                value,\n                expirySeconds,\n                paymentId,\n                minAttestations\n            );\n    }\n  \n    // Get the offer details\n    function getOfferAndHash(\n        bytes16 _tradeID,\n        address _serviceProvider,\n        address _consumer,\n        uint256 _amount,\n        uint16 _fee\n    ) private view returns (Offer storage, bytes32) {\n        bytes32 _tradeHash =\n            keccak256(\n                abi.encodePacked(\n                    _tradeID,\n                    _serviceProvider,\n                    _consumer,\n                    _amount,\n                    _fee\n                )\n            );\n        return (offers[_tradeHash], _tradeHash);\n    }\n    \n    // Celo contract to transfer tokens\n     function transferAmount(address  to, uint256 value, uint32 currencyId) public returns (bool) {\n        address celoStableTokenAddress;\n        if (currencyId == 1) { // cUSD\n             celoStableTokenAddress = cUSDTokenAddress;\n        } else if (currencyId == 2) { // cEUR\n            celoStableTokenAddress = cEURTokenAddress;\n        }\n        celoStableTokenContract obj = celoStableTokenContract(celoStableTokenAddress);\n              return obj.transfer(\n                to,\n                value\n            );\n       \n    }\n\n    // Celo contract to approve\n    function approveTransfer(address spender, uint256 value) public virtual returns (bool) {\n        //To do\n        // celoStableTokenContract obj = celoStableTokenContract(stableTokenAddress);\n        celoStableTokenContract obj = celoStableTokenContract(0x874069Fa1Eb16D44d622F2e0Ca25eeA172369bC1);\n        return obj.approve(spender,value);\n    }\n    \n    \n    // Creating Plans \n\n    /**\n    config[0] - _amountPerSession\n    config[1] - _subScriptionType     // 1- Monthly , 2 - Yearly\n    config[2] - _totalBundles\n    config[3] - _referralConfigId \n    config[4] - _referrerPercen  \n    config[5] - currencyId           // 1 -cUSD , 2 -cEUR\n     */\n     \n    \n    function createPlan(\n        bytes16 _planID, \n        uint _planType,  // Bundles / Subscription\n        uint32 [] memory config,\n        address payable[] memory userAddress,\n        bytes memory signature\n    ) external  { \n        bytes32 _planHash =\n            keccak256(abi.encodePacked(_planID,userAddress[0],userAddress[1])); \n        // Signature verification \n        bytes32 _msgHash =  keccak256(abi.encodePacked(userAddress[0], config[0],config[1]));\n        bytes32 ethSignedMessageHash = prefixed(_msgHash);\n        // require(recoverSigner(ethSignedMessageHash, signature) == userAddress[0], \"Wrong signature\");\n        plans[_planHash] = Plan(\n            true,           // exists\n            _planType,      \n            config[0] ,     //amountPerSession\n            config[1],      // subScriptionType\n            config[2] ,     // totalBundles\n            config[2],      // availableBundles\n            config[5]);     // currencyId\n        planHash = _planHash;\n        emit CreatedPlan(_planHash);\n        \n    }\n\n    // Creating offer - Trade between service provider and consumer\n\n    /**\n     * userAddress[0]       - Service provider\n     * userAddress[1]       - Consumer\n     * config[0]            - _cancelHourVar1\n     * config[1]            - _cancelHourVar1Percen\n     * config[2]            - _cancelHourVar2\n     * config[3]            - _cancelHourVar2Percen\n     * config[4]            - _delayHour\n     * config[5]            - _delayHourPercen\n     * config[6]            - _referralConfigId , 1 - FirstInteraction , 2 -> Last interaction . 3-> Last No-Direct click 4 -> Linear\n     * config[7]            - _referralConfigPercen\n     * config[8]            - currencyID , 1 - cUSD , 2 - cEUR\n     *\n     **/\n\n    function createOffer(\n        bytes16 _tradeID,\n        bytes16 _planID,\n        uint256 _amount,\n        uint16 _fee,\n        uint32 _expiry,\n        uint32 _slotTime,\n        uint256 _initialDeposit,\n        address payable[] memory userAddress,\n        uint32[] memory config,\n        address payable[] memory activeReferrers,\n        address payable[] memory newReferrers,\n        bytes memory signature\n    ) external payable {\n        bytes32 _tradeHash =\n            keccak256(\n                abi.encodePacked(\n                    _tradeID,\n                    userAddress[0],\n                    userAddress[1],\n                    _amount,\n                    _fee\n                )\n            );\n        require(!offers[_tradeHash].exists, \"Trade already exist\");\n        require(block.timestamp < _expiry, \"Offer expired!\");\n        uint32 tradeStartTime = uint32(block.timestamp);\n        uint256 _rewardValue;\n        uint256 _rewardPerReferrer =0;\n        \n        offerInfo memory offerinfo;\n        offerinfo._amount = _amount;\n        offerinfo._planID = _planID;\n        offerinfo.serviceProvider = userAddress[0];\n        offerinfo.consumer = userAddress[1];\n       \n        // require(msg.sender == userAddress[1], \"Not consumer\");\n        \n        // this recreates the message that was signed on the client\n\n        bytes32 _msgHash =  keccak256(abi.encodePacked(userAddress[0], offerinfo._amount, _initialDeposit , config));\n        bytes32 ethSignedMessageHash = prefixed(_msgHash);\n\n        // require(recoverSigner(ethSignedMessageHash, signature) == userAddress[0], \"Wrong signature\");\n        \n        { // To avoid stack too deep error\n            (Plan memory _plan, bytes32 _planHash)= getPlanAndHash(offerinfo._planID, offerinfo.serviceProvider, offerinfo.consumer);\n                if (_plan.exists == true) {\n                    require( plans[_planHash].availableBundles > 0 , \"No available bundles.\");\n                    planHash = _planHash;\n                    plans[_planHash].availableBundles -= 1;\n                }\n        }\n        \n        // Cancellation variable 1 is added to the trade starting time to calculate the cancellation period time. And  converted from minutes to seconds \n        if (config[0] > 0) {\n            config[0] = tradeStartTime + config[0] * 60;\n        }\n\n         // Cancellation variable 1 is added to the cancellation variable 2 to calculate the cancellation period time. And  converted from minutes to seconds\n        if (config[2] > 0) {\n            config[2] = config[0] + config[2] * 60;\n        }\n\n        // Delay period is converted from minutes to seconds\n        if (config[4] > 0) {\n            config[4] = config[4] * 60;\n        }\n\n        // Referral bonus calculation\n        if (config[6] == 4){\n            if(config[7] > 0){\n                _rewardValue = offerinfo._amount * config[7] / 100;\n                offerinfo._amount = offerinfo._amount - _rewardValue;\n                \n                uint totalReferrers = activeReferrers.length + newReferrers.length;             \n                if(totalReferrers > 0)\n                    _rewardPerReferrer = _rewardValue / totalReferrers;\n            }\n        }\n        \n       // Distributing the referral bonus for the heymate users\n       // @param config[8] - currencyID\n        if(activeReferrers.length > 0){\n            for (uint i=0; i< activeReferrers.length ; i++){\n                 transferAmount(activeReferrers[i], _rewardPerReferrer, config[8]);\n            }\n        }\n        \n        // Creating escrow payment for the non-heymate users in celo.\n        // This needs to be updated w.r.t currencyID\n        if(newReferrers.length > 0){\n            approveTransfer(celoEscrowContractAddress, _rewardPerReferrer * newReferrers.length );\n             for (uint i=0; i< newReferrers.length ; i++){\n                 escrowTransfer('0x0',\n                    0x874069Fa1Eb16D44d622F2e0Ca25eeA172369bC1,    // Stable Token address\n                    _rewardPerReferrer,\n                    604800,                     // 7 days in seconds\n                    newReferrers[i],\n                    0);\n             }\n        }\n        \n        offers[_tradeHash] = Offer(\n            true,               // exists   \n            0,                  // serviceStartTime\n            0,                  // initialDepositValue\n            0,                  // remainingValue\n            _slotTime,          \n            tradeStartTime,\n            config[0],          // cancelVar1 \n            config[1],          // cancelVar1 percentage\n            config[2],          // cancelVar2\n            config[3],          // cancelVar2 percentage\n            config[4],          // delayHour\n            config[5],          // delayHour percentage\n            _rewardValue,       \n            config[8]           // currencyID    \n        );\n\n        tradeHash = _tradeHash;\n         offers[_tradeHash].remainingValue =  offerinfo._amount;\n        if (_initialDeposit > 0) {\n            offers[_tradeHash].initialDepositValue = getInitialDeposit(\n                offerinfo._amount,\n                _initialDeposit\n            );\n            offers[_tradeHash].remainingValue =\n                offerinfo._amount -\n                offers[_tradeHash].initialDepositValue;\n           \n             transferAmount(\n              userAddress[0],\n              offers[_tradeHash].initialDepositValue,\n              offers[_tradeHash].currencyId\n              );\n        }\n\n        emit Created(_tradeHash);\n    }\n\n    // Creates the hash.\n    function prefixed(bytes32 hash) public pure returns (bytes32) {\n        return\n            keccak256(\n                abi.encodePacked(\"\\x19Ethereum Signed Message:\\n32\", hash)\n            );\n    }\n\n    function recoverSigner(bytes32 message, bytes memory sig)\n        internal\n        pure\n        returns (address)\n    {\n        (uint8 v, bytes32 r, bytes32 s) = splitSignature(sig);\n\n        return ecrecover(message, v, r, s);\n    }\n\n    //signature methods.\n    function splitSignature(bytes memory sig)\n        internal\n        pure\n        returns (\n            uint8 v,\n            bytes32 r,\n            bytes32 s\n        )\n    {\n        // require(sig.length == 65);\n\n        assembly {\n            // first 32 bytes, after the length prefix.\n            r := mload(add(sig, 32))\n            // second 32 bytes.\n            s := mload(add(sig, 64))\n            // final byte (first byte of the next 32 bytes).\n            v := byte(0, mload(add(sig, 96)))\n        }\n\n        return (v, r, s);\n    }\n\n    function getInitialDeposit(uint256 _amount, uint256 _initialDeposit)\n        private\n        pure\n        returns (uint256)\n    {\n        uint256 _initialDepositValue = ((_amount * _initialDeposit) / 100);\n        return _initialDepositValue;\n    }\n    \n       // Get the plan details  \n    function getPlanAndHash(\n        bytes16 _planID,\n        address _serviceProvider,\n        address _consumer\n    ) private view returns (Plan storage, bytes32) {\n        bytes32 _planHash =\n            keccak256(\n                abi.encodePacked(\n                    _planID,\n                    _serviceProvider,\n                    _consumer\n                )\n            );\n        return (plans[_planHash], _planHash);\n    }\n\n    \n\n    // Start service function. Only SP can start the service.\n    function dostartService(\n        bytes16 _tradeID,\n        address _serviceProvider,\n        address _consumer,\n        uint256 _amount,\n        uint16 _fee\n    ) private returns (bool) {\n        (Offer memory _offer, bytes32 _tradeHash) =\n            getOfferAndHash(\n                _tradeID,\n                _serviceProvider,\n                _consumer,\n                _amount,\n                _fee\n            );\n\n        if (!_offer.exists) return false;\n        uint32 _serviceStartTime = uint32(block.timestamp);\n        offers[_tradeHash].serviceStartTime = _serviceStartTime;\n        emit StartService(_tradeHash);\n        return true;\n    }\n\n    // Consumer call this function to release remaining money and mark the service as Complete.\n    function doRelease(\n        bytes16 _tradeID,\n        address payable _serviceProvider,\n        address payable _consumer,\n        uint256 _amount,\n        uint16 _fee\n    ) private returns (bool) {\n        (Offer memory _offer, bytes32 _tradeHash) =\n            getOfferAndHash(\n                _tradeID,\n                _serviceProvider,\n                _consumer,\n                _amount,\n                _fee\n            );\n\n        if (!_offer.exists) return false;\n        uint256 _delayCompensationValue = 0;\n        if (\n            offers[_tradeHash].serviceStartTime >\n            offers[_tradeHash].slotTime + offers[_tradeHash].delayHour\n        ) {\n            _delayCompensationValue = ((_amount *\n                offers[_tradeHash].delayHourPercen) / 100);\n            delayCompensation = _delayCompensationValue;\n            transferMinusFees(_consumer, _delayCompensationValue, _fee, offers[_tradeHash].currencyId);\n        }\n\n        uint256 _releaseAmount =\n            offers[_tradeHash].remainingValue - _delayCompensationValue;\n        releaseAmount = _releaseAmount;\n\n        emit Released(_tradeHash);\n        transferMinusFees(_serviceProvider, _releaseAmount, _fee, offers[_tradeHash].currencyId);\n        delete offers[_tradeHash];\n        return true;\n    }\n\n    // SP can cancel the service.\n    function doServiceProviderCancel(\n        bytes16 _tradeID,\n        address _serviceProvider,\n        address payable _consumer,\n        uint256 _amount,\n        uint16 _fee\n    ) private returns (bool) {\n        (Offer memory _offer, bytes32 _tradeHash) =\n            getOfferAndHash(\n                _tradeID,\n                _serviceProvider,\n                _consumer,\n                _amount,\n                _fee\n            );\n\n        if (!_offer.exists) return false;\n        emit CancelledByServiceProvider(_tradeHash);\n        releaseAmount = offers[_tradeHash].remainingValue;\n        transferMinusFees(_consumer, offers[_tradeHash].remainingValue, _fee, offers[_tradeHash].currencyId);\n        delete offers[_tradeHash];\n        return true;\n    }\n\n    // Consumer can cancel the service.\n    function doConsumerCancel(\n        bytes16 _tradeID,\n        address payable _serviceProvider,\n        address payable _consumer,\n        uint256 _amount,\n        uint16 _fee\n    ) private returns (bool) {\n        (Offer memory _offer, bytes32 _tradeHash) =\n            getOfferAndHash(\n                _tradeID,\n                _serviceProvider,\n                _consumer,\n                _amount,\n                _fee\n            );\n        if (!_offer.exists) return false;\n        uint256 _cancellationValueDeposit = 0;\n        uint32 cancelTime = uint32(block.timestamp);\n\n        if (\n            cancelTime > offers[_tradeHash].tradeStartTime &&\n            cancelTime <= offers[_tradeHash].cancelHourVar1\n        ) {\n            _cancellationValueDeposit =\n                (offers[_tradeHash].remainingValue *\n                    offers[_tradeHash].cancelHourVar1Percen) /\n                100;\n            cancellationValueDeposit = _cancellationValueDeposit;\n            transferMinusFees(\n                _serviceProvider,\n                _cancellationValueDeposit,\n                _fee,\n                offers[_tradeHash].currencyId\n            );\n        } else if (\n            cancelTime > offers[_tradeHash].cancelHourVar1 &&\n            cancelTime <= offers[_tradeHash].cancelHourVar2\n        ) {\n            _cancellationValueDeposit =\n                (offers[_tradeHash].remainingValue *\n                    offers[_tradeHash].cancelHourVar2Percen) /\n                100;\n            cancellationValueDeposit = _cancellationValueDeposit;\n            transferMinusFees(\n                _serviceProvider,\n                _cancellationValueDeposit,\n                _fee,\n                offers[_tradeHash].currencyId\n            );\n        }\n\n        uint256 _releaseAmount =\n            offers[_tradeHash].remainingValue - _cancellationValueDeposit;\n        releaseAmount = _releaseAmount;\n\n        emit CancelledByConsumer(_tradeHash);\n        transferMinusFees(_consumer, _releaseAmount, _fee, offers[_tradeHash].currencyId);\n        delete offers[_tradeHash];\n        return true;\n    }\n    \n     function doSubscriptionPayment(\n        bytes16 _planID,\n        address  _serviceProvider,\n        address payable _consumer\n    ) private returns (bool) {\n       \n            (Plan memory _plan, bytes32 _planHash)= getPlanAndHash(_planID, _serviceProvider, _consumer);\n             if (_plan.exists == true) {\n                      transferAmount(_serviceProvider, plans[_planHash].amountPerSession, plans[_planHash].currencyId);\n                }\n        return true;\n    }\n    \n    \n    function doCancelSubscription(\n        bytes16 _planID,\n        address  _serviceProvider,\n        address payable _consumer\n    ) private returns (bool) {\n       \n            (Plan memory _plan, bytes32 _planHash)= getPlanAndHash(_planID, _serviceProvider, _consumer);\n               if (!_plan.exists) return false;\n             delete plans[_planHash];\n             return true;\n    }\n\n\n    function startService(\n        bytes16 _tradeID,\n        address _serviceProvider,\n        address _consumer,\n        uint256 _amount,\n        uint16 _fee\n    ) external returns (bool) {\n        // require(msg.sender == _serviceProvider, \"Not Service provider\");\n        return\n            dostartService(\n                _tradeID,\n                _serviceProvider,\n                _consumer,\n                _amount,\n                _fee\n            );\n    }\n\n    function release(\n        bytes16 _tradeID,\n        address payable _serviceProvider,\n        address payable _consumer,\n        uint256 _amount,\n        uint16 _fee\n    ) external payable returns (bool) {\n        // require(msg.sender == _consumer, \"Not Consumer\");\n        return doRelease(_tradeID, _serviceProvider, _consumer, _amount, _fee);\n    }\n\n    function consumerCancel(\n        bytes16 _tradeID,\n        address payable _serviceProvider,\n        address payable _consumer,\n        uint256 _amount,\n        uint16 _fee\n    ) external returns (bool) {\n        // require(msg.sender == _consumer, \"Not Consumer\");    \n        return\n            doConsumerCancel(\n                _tradeID,\n                _serviceProvider,\n                _consumer,\n                _amount,\n                _fee\n            );\n    }\n\n    function serviceProviderCancel(\n        bytes16 _tradeID,\n        address _serviceProvider,\n        address payable _consumer,\n        uint256 _amount,\n        uint16 _fee\n    ) external returns (bool) {\n        // require(msg.sender == _serviceProvider, \"Not Service provider\");\n        return\n            doServiceProviderCancel(\n                _tradeID,\n                _serviceProvider,\n                _consumer,\n                _amount,\n                _fee\n            );\n    }\n    \n    function subscriptionPayment(\n         bytes16 _planID,\n        address _serviceProvider,\n        address payable _consumer\n    ) external returns (bool) {\n        // require(msg.sender == _consumer, \"Not Consumer\");\n        return\n            doSubscriptionPayment(\n                _planID,\n                _serviceProvider,\n                _consumer\n            );\n    }\n    \n     function cancelSubscription(\n         bytes16 _planID,\n        address _serviceProvider,\n        address payable _consumer\n    ) external returns (bool) {\n        // require(msg.sender == _consumer, \"Not Consumer\");\n        return\n            doCancelSubscription(\n                _planID,\n                _serviceProvider,\n                _consumer\n            );\n    }\n\n    function transferMinusFees(\n        address payable _to,\n        uint256 _amount,\n        uint16 _fee,\n        uint32 _currencyId\n    ) private {\n        uint256 _totalFees = ((_amount * _fee) / 10000);\n        totalFees = _totalFees;\n        if (_amount - _totalFees > _amount) return; // Prevent underflow\n        feesAvailableForWithdraw += _totalFees;\n   // _to.transfer(_amount - _totalFees);\n        transferAmount(\n              _to,\n              (_amount - _totalFees),\n              _currencyId\n              );\n    }\n\n    function withdrawFees(address payable _to, uint256 _amount)\n        external\n        onlyOwner\n    {\n        // require(_amount <= feesAvailableForWithdraw); // Prevents underflow\n        feesAvailableForWithdraw -= _amount;\n        _to.transfer(_amount);\n    }\n\n    function setOwner(address _newOwner) external onlyOwner {\n        owner = _newOwner;\n    }\n}\n",
  "sourcePath": "/home/liz/Documents/Work/Heymate/Client/Heymate/celo-smart-contracts/contracts/heymateOffer.sol",
  "compiler": {
    "name": "solc",
    "version": "0.7.4+commit.3f05b770.Emscripten.clang"
  },
  "schemaVersion": "3.3.4",
  "updatedAt": "2021-08-03T09:32:44.674Z",
  "devdoc": {
    "kind": "dev",
    "methods": {},
    "version": 1
  },
  "userdoc": {
    "kind": "user",
    "methods": {
      "createOffer(bytes16,bytes16,uint256,uint16,uint32,uint32,uint256,address[],uint32[],address[],address[],bytes)": {
        "notice": "userAddress[0]       - Service provider userAddress[1]       - Consumer config[0]            - _cancelHourVar1 config[1]            - _cancelHourVar1Percen config[2]            - _cancelHourVar2 config[3]            - _cancelHourVar2Percen config[4]            - _delayHour config[5]            - _delayHourPercen config[6]            - _referralConfigId , 1 - FirstInteraction , 2 -> Last interaction . 3-> Last No-Direct click 4 -> Linear config[7]            - _referralConfigPercen config[8]            - currencyID , 1 - cUSD , 2 - cEUR*"
      },
      "createPlan(bytes16,uint256,uint32[],address[],bytes)": {
        "notice": "config[0] - _amountPerSession config[1] - _subScriptionType     // 1- Monthly , 2 - Yearly config[2] - _totalBundles config[3] - _referralConfigId  config[4] - _referrerPercen   config[5] - currencyId           // 1 -cUSD , 2 -cEUR"
      }
    },
    "notice": "Heymate Contract ",
    "version": 1
  }
}