{
  "contractName": "HeymateEscrows",
  "abi": [
    {
      "inputs": [],
      "payable": false,
      "stateMutability": "nonpayable",
      "type": "constructor"
    },
    {
      "anonymous": false,
      "inputs": [
        {
          "indexed": false,
          "internalType": "bytes32",
          "name": "_tradeHash",
          "type": "bytes32"
        }
      ],
      "name": "CancelledByConsumer",
      "type": "event"
    },
    {
      "anonymous": false,
      "inputs": [
        {
          "indexed": false,
          "internalType": "bytes32",
          "name": "_tradeHash",
          "type": "bytes32"
        }
      ],
      "name": "CancelledByServiceProvider",
      "type": "event"
    },
    {
      "anonymous": false,
      "inputs": [
        {
          "indexed": false,
          "internalType": "bytes32",
          "name": "_tradeHash",
          "type": "bytes32"
        }
      ],
      "name": "Created",
      "type": "event"
    },
    {
      "anonymous": false,
      "inputs": [
        {
          "indexed": false,
          "internalType": "bytes32",
          "name": "_tradeHash",
          "type": "bytes32"
        }
      ],
      "name": "Released",
      "type": "event"
    },
    {
      "anonymous": false,
      "inputs": [
        {
          "indexed": false,
          "internalType": "bytes32",
          "name": "_tradeHash",
          "type": "bytes32"
        }
      ],
      "name": "StartService",
      "type": "event"
    },
    {
      "constant": true,
      "inputs": [],
      "name": "cancellationValueDeposit",
      "outputs": [
        {
          "internalType": "uint256",
          "name": "",
          "type": "uint256"
        }
      ],
      "payable": false,
      "stateMutability": "view",
      "type": "function"
    },
    {
      "constant": true,
      "inputs": [],
      "name": "delayCompensation",
      "outputs": [
        {
          "internalType": "uint256",
          "name": "",
          "type": "uint256"
        }
      ],
      "payable": false,
      "stateMutability": "view",
      "type": "function"
    },
    {
      "constant": true,
      "inputs": [],
      "name": "feesAvailableForWithdraw",
      "outputs": [
        {
          "internalType": "uint256",
          "name": "",
          "type": "uint256"
        }
      ],
      "payable": false,
      "stateMutability": "view",
      "type": "function"
    },
    {
      "constant": true,
      "inputs": [
        {
          "internalType": "bytes32",
          "name": "",
          "type": "bytes32"
        }
      ],
      "name": "offers",
      "outputs": [
        {
          "internalType": "bool",
          "name": "exists",
          "type": "bool"
        },
        {
          "internalType": "uint32",
          "name": "serviceStartTime",
          "type": "uint32"
        },
        {
          "internalType": "uint256",
          "name": "initialDepositValue",
          "type": "uint256"
        },
        {
          "internalType": "uint256",
          "name": "remainingValue",
          "type": "uint256"
        },
        {
          "internalType": "uint32",
          "name": "slotTime",
          "type": "uint32"
        },
        {
          "internalType": "uint32",
          "name": "tradeStartTime",
          "type": "uint32"
        },
        {
          "internalType": "uint32",
          "name": "cancelHourVar1",
          "type": "uint32"
        },
        {
          "internalType": "uint32",
          "name": "cancelHourVar1Percen",
          "type": "uint32"
        },
        {
          "internalType": "uint32",
          "name": "cancelHourVar2",
          "type": "uint32"
        },
        {
          "internalType": "uint32",
          "name": "cancelHourVar2Percen",
          "type": "uint32"
        },
        {
          "internalType": "uint16",
          "name": "delayHour",
          "type": "uint16"
        },
        {
          "internalType": "uint16",
          "name": "delayHourPercen",
          "type": "uint16"
        },
        {
          "internalType": "enum HeymateEscrows.State",
          "name": "currentState",
          "type": "uint8"
        }
      ],
      "payable": false,
      "stateMutability": "view",
      "type": "function"
    },
    {
      "constant": true,
      "inputs": [],
      "name": "owner",
      "outputs": [
        {
          "internalType": "address",
          "name": "",
          "type": "address"
        }
      ],
      "payable": false,
      "stateMutability": "view",
      "type": "function"
    },
    {
      "constant": true,
      "inputs": [],
      "name": "releaseAmount",
      "outputs": [
        {
          "internalType": "uint256",
          "name": "",
          "type": "uint256"
        }
      ],
      "payable": false,
      "stateMutability": "view",
      "type": "function"
    },
    {
      "constant": true,
      "inputs": [],
      "name": "totalFees",
      "outputs": [
        {
          "internalType": "uint256",
          "name": "",
          "type": "uint256"
        }
      ],
      "payable": false,
      "stateMutability": "view",
      "type": "function"
    },
    {
      "constant": true,
      "inputs": [],
      "name": "tradeHash",
      "outputs": [
        {
          "internalType": "bytes32",
          "name": "",
          "type": "bytes32"
        }
      ],
      "payable": false,
      "stateMutability": "view",
      "type": "function"
    },
    {
      "constant": false,
      "inputs": [
        {
          "internalType": "bytes16",
          "name": "_tradeID",
          "type": "bytes16"
        },
        {
          "internalType": "address payable",
          "name": "_serviceProvider",
          "type": "address"
        },
        {
          "internalType": "address",
          "name": "_consumer",
          "type": "address"
        },
        {
          "internalType": "uint256",
          "name": "_amount",
          "type": "uint256"
        },
        {
          "internalType": "uint16",
          "name": "_fee",
          "type": "uint16"
        },
        {
          "internalType": "uint32",
          "name": "_expiry",
          "type": "uint32"
        },
        {
          "internalType": "uint32",
          "name": "_slotTime",
          "type": "uint32"
        },
        {
          "internalType": "uint256",
          "name": "_initialDeposit",
          "type": "uint256"
        },
        {
          "internalType": "uint32",
          "name": "_cancelHourVar1",
          "type": "uint32"
        },
        {
          "internalType": "uint16",
          "name": "_cancelHourVar1Percen",
          "type": "uint16"
        },
        {
          "internalType": "uint32",
          "name": "_cancelHourVar2",
          "type": "uint32"
        },
        {
          "internalType": "uint16",
          "name": "_cancelHourVar2Percen",
          "type": "uint16"
        },
        {
          "internalType": "uint16",
          "name": "_delayHour",
          "type": "uint16"
        },
        {
          "internalType": "uint16",
          "name": "_delayHourPercen",
          "type": "uint16"
        }
      ],
      "name": "createOffer",
      "outputs": [],
      "payable": true,
      "stateMutability": "payable",
      "type": "function"
    },
    {
      "constant": false,
      "inputs": [
        {
          "internalType": "bytes16",
          "name": "_tradeID",
          "type": "bytes16"
        },
        {
          "internalType": "address",
          "name": "_serviceProvider",
          "type": "address"
        },
        {
          "internalType": "address",
          "name": "_consumer",
          "type": "address"
        },
        {
          "internalType": "uint256",
          "name": "_amount",
          "type": "uint256"
        },
        {
          "internalType": "uint16",
          "name": "_fee",
          "type": "uint16"
        }
      ],
      "name": "startService",
      "outputs": [
        {
          "internalType": "bool",
          "name": "",
          "type": "bool"
        }
      ],
      "payable": false,
      "stateMutability": "nonpayable",
      "type": "function"
    },
    {
      "constant": false,
      "inputs": [
        {
          "internalType": "bytes16",
          "name": "_tradeID",
          "type": "bytes16"
        },
        {
          "internalType": "address payable",
          "name": "_serviceProvider",
          "type": "address"
        },
        {
          "internalType": "address payable",
          "name": "_consumer",
          "type": "address"
        },
        {
          "internalType": "uint256",
          "name": "_amount",
          "type": "uint256"
        },
        {
          "internalType": "uint16",
          "name": "_fee",
          "type": "uint16"
        }
      ],
      "name": "release",
      "outputs": [
        {
          "internalType": "bool",
          "name": "",
          "type": "bool"
        }
      ],
      "payable": true,
      "stateMutability": "payable",
      "type": "function"
    },
    {
      "constant": false,
      "inputs": [
        {
          "internalType": "bytes16",
          "name": "_tradeID",
          "type": "bytes16"
        },
        {
          "internalType": "address payable",
          "name": "_serviceProvider",
          "type": "address"
        },
        {
          "internalType": "address payable",
          "name": "_consumer",
          "type": "address"
        },
        {
          "internalType": "uint256",
          "name": "_amount",
          "type": "uint256"
        },
        {
          "internalType": "uint16",
          "name": "_fee",
          "type": "uint16"
        }
      ],
      "name": "consumerCancel",
      "outputs": [
        {
          "internalType": "bool",
          "name": "",
          "type": "bool"
        }
      ],
      "payable": false,
      "stateMutability": "nonpayable",
      "type": "function"
    },
    {
      "constant": false,
      "inputs": [
        {
          "internalType": "bytes16",
          "name": "_tradeID",
          "type": "bytes16"
        },
        {
          "internalType": "address",
          "name": "_serviceProvider",
          "type": "address"
        },
        {
          "internalType": "address payable",
          "name": "_consumer",
          "type": "address"
        },
        {
          "internalType": "uint256",
          "name": "_amount",
          "type": "uint256"
        },
        {
          "internalType": "uint16",
          "name": "_fee",
          "type": "uint16"
        }
      ],
      "name": "serviceProviderCancel",
      "outputs": [
        {
          "internalType": "bool",
          "name": "",
          "type": "bool"
        }
      ],
      "payable": false,
      "stateMutability": "nonpayable",
      "type": "function"
    },
    {
      "constant": false,
      "inputs": [
        {
          "internalType": "address payable",
          "name": "_to",
          "type": "address"
        },
        {
          "internalType": "uint256",
          "name": "_amount",
          "type": "uint256"
        }
      ],
      "name": "withdrawFees",
      "outputs": [],
      "payable": false,
      "stateMutability": "nonpayable",
      "type": "function"
    },
    {
      "constant": false,
      "inputs": [
        {
          "internalType": "address",
          "name": "_newOwner",
          "type": "address"
        }
      ],
      "name": "setOwner",
      "outputs": [],
      "payable": false,
      "stateMutability": "nonpayable",
      "type": "function"
    }
  ],
  "bytecode": "0x608060405234801561001057600080fd5b50336000806101000a81548173ffffffffffffffffffffffffffffffffffffffff021916908373ffffffffffffffffffffffffffffffffffffffff160217905550612912806100606000396000f3fe6080604052600436106100e85760003560e01c80639a5be7881161008a578063c062dc5f11610059578063c062dc5f146106e0578063de5785d51461070b578063e9600f1214610736578063f02711e6146107e7576100e8565b80639a5be788146104de578063a287b80214610509578063a382c39d146105c7578063ad3b1b4714610685576100e8565b8063342e9e55116100c6578063342e9e5514610285578063474d3ff0146103435780634db9afec1461045c5780638da5cb5b14610487576100e8565b80630c0bb89f146100ed57806313114a9d1461020957806313af403514610234575b600080fd5b61020760048036036101c081101561010457600080fd5b8101908080356fffffffffffffffffffffffffffffffff19169060200190929190803573ffffffffffffffffffffffffffffffffffffffff169060200190929190803573ffffffffffffffffffffffffffffffffffffffff16906020019092919080359060200190929190803561ffff169060200190929190803563ffffffff169060200190929190803563ffffffff16906020019092919080359060200190929190803563ffffffff169060200190929190803561ffff169060200190929190803563ffffffff169060200190929190803561ffff169060200190929190803561ffff169060200190929190803561ffff169060200190929190505050610812565b005b34801561021557600080fd5b5061021e610e2e565b6040518082815260200191505060405180910390f35b34801561024057600080fd5b506102836004803603602081101561025757600080fd5b81019080803573ffffffffffffffffffffffffffffffffffffffff169060200190929190505050610e34565b005b34801561029157600080fd5b50610329600480360360a08110156102a857600080fd5b8101908080356fffffffffffffffffffffffffffffffff19169060200190929190803573ffffffffffffffffffffffffffffffffffffffff169060200190929190803573ffffffffffffffffffffffffffffffffffffffff16906020019092919080359060200190929190803561ffff169060200190929190505050610ed0565b604051808215151515815260200191505060405180910390f35b34801561034f57600080fd5b5061037c6004803603602081101561036657600080fd5b8101908080359060200190929190505050610f8b565b604051808e1515151581526020018d63ffffffff1663ffffffff1681526020018c81526020018b81526020018a63ffffffff1663ffffffff1681526020018963ffffffff1663ffffffff1681526020018863ffffffff1663ffffffff1681526020018763ffffffff1663ffffffff1681526020018663ffffffff1663ffffffff1681526020018563ffffffff1663ffffffff1681526020018461ffff1661ffff1681526020018361ffff1661ffff16815260200182600581111561043c57fe5b60ff1681526020019d505050505050505050505050505060405180910390f35b34801561046857600080fd5b50610471611097565b6040518082815260200191505060405180910390f35b34801561049357600080fd5b5061049c61109d565b604051808273ffffffffffffffffffffffffffffffffffffffff1673ffffffffffffffffffffffffffffffffffffffff16815260200191505060405180910390f35b3480156104ea57600080fd5b506104f36110c2565b6040518082815260200191505060405180910390f35b34801561051557600080fd5b506105ad600480360360a081101561052c57600080fd5b8101908080356fffffffffffffffffffffffffffffffff19169060200190929190803573ffffffffffffffffffffffffffffffffffffffff169060200190929190803573ffffffffffffffffffffffffffffffffffffffff16906020019092919080359060200190929190803561ffff1690602001909291905050506110c8565b604051808215151515815260200191505060405180910390f35b3480156105d357600080fd5b5061066b600480360360a08110156105ea57600080fd5b8101908080356fffffffffffffffffffffffffffffffff19169060200190929190803573ffffffffffffffffffffffffffffffffffffffff169060200190929190803573ffffffffffffffffffffffffffffffffffffffff16906020019092919080359060200190929190803561ffff169060200190929190505050611183565b604051808215151515815260200191505060405180910390f35b34801561069157600080fd5b506106de600480360360408110156106a857600080fd5b81019080803573ffffffffffffffffffffffffffffffffffffffff1690602001909291908035906020019092919050505061123e565b005b3480156106ec57600080fd5b506106f5611301565b6040518082815260200191505060405180910390f35b34801561071757600080fd5b50610720611307565b6040518082815260200191505060405180910390f35b6107cd600480360360a081101561074c57600080fd5b8101908080356fffffffffffffffffffffffffffffffff19169060200190929190803573ffffffffffffffffffffffffffffffffffffffff169060200190929190803573ffffffffffffffffffffffffffffffffffffffff16906020019092919080359060200190929190803561ffff16906020019092919050505061130d565b604051808215151515815260200191505060405180910390f35b3480156107f357600080fd5b506107fc6113c8565b6040518082815260200191505060405180910390f35b60008e8e8e8e8e60405160200180866fffffffffffffffffffffffffffffffff19166fffffffffffffffffffffffffffffffff191681526010018573ffffffffffffffffffffffffffffffffffffffff1673ffffffffffffffffffffffffffffffffffffffff1660601b81526014018473ffffffffffffffffffffffffffffffffffffffff1673ffffffffffffffffffffffffffffffffffffffff1660601b81526014018381526020018261ffff1661ffff1660f01b8152600201955050505050506040516020818303038152906040528051906020012090506007600082815260200190815260200160002060000160009054906101000a900460ff1615610983576040517f08c379a00000000000000000000000000000000000000000000000000000000081526004018080602001828103825260138152602001807f547261646520616c72656164792065786973740000000000000000000000000081525060200191505060405180910390fd5b8963ffffffff1642106109fe576040517f08c379a000000000000000000000000000000000000000000000000000000000815260040180806020018281038252600e8152602001807f4f6666657220657870697265642100000000000000000000000000000000000081525060200191505060405180910390fd5b60004290508c34148015610a125750600034115b610a67576040517f08c379a000000000000000000000000000000000000000000000000000000000815260040180806020018281038252604f81526020018061288f604f913960600191505060405180910390fd5b60008863ffffffff161115610a8157603c80890202810197505b60008663ffffffff161115610a9b57603c80870202880195505b60008461ffff161115610ab157603c8085020293505b604051806101a00160405280600115158152602001600063ffffffff16815260200160008152602001600081526020018b63ffffffff1681526020018263ffffffff1681526020018963ffffffff1681526020018861ffff1663ffffffff1681526020018763ffffffff1681526020018661ffff1663ffffffff1681526020018561ffff1681526020018461ffff16815260200160006005811115610b5257fe5b8152506007600084815260200190815260200160002060008201518160000160006101000a81548160ff02191690831515021790555060208201518160000160016101000a81548163ffffffff021916908363ffffffff160217905550604082015181600101556060820151816002015560808201518160030160006101000a81548163ffffffff021916908363ffffffff16021790555060a08201518160030160046101000a81548163ffffffff021916908363ffffffff16021790555060c08201518160030160086101000a81548163ffffffff021916908363ffffffff16021790555060e082015181600301600c6101000a81548163ffffffff021916908363ffffffff1602179055506101008201518160030160106101000a81548163ffffffff021916908363ffffffff1602179055506101208201518160030160146101000a81548163ffffffff021916908363ffffffff1602179055506101408201518160030160186101000a81548161ffff021916908361ffff16021790555061016082015181600301601a6101000a81548161ffff021916908361ffff16021790555061018082015181600301601c6101000a81548160ff02191690836005811115610d1c57fe5b0217905550905050816001819055506000891115610de557610d3e8d8a6113ce565b600760008481526020019081526020016000206001018190555060076000838152602001908152602001600020600101548d036007600084815260200190815260200160002060020181905550600160076000848152602001908152602001600020600301601c6101000a81548160ff02191690836005811115610dbe57fe5b0217905550610de48f60076000858152602001908152602001600020600101548e6113ea565b5b7f102d25c49d33fcdb8976a3f2744e0785c98d9e43b88364859e6aec4ae82eff5c826040518082815260200191505060405180910390a150505050505050505050505050505050565b60055481565b6000809054906101000a900473ffffffffffffffffffffffffffffffffffffffff1673ffffffffffffffffffffffffffffffffffffffff163373ffffffffffffffffffffffffffffffffffffffff1614610e8d57600080fd5b806000806101000a81548173ffffffffffffffffffffffffffffffffffffffff021916908373ffffffffffffffffffffffffffffffffffffffff16021790555050565b60008473ffffffffffffffffffffffffffffffffffffffff163373ffffffffffffffffffffffffffffffffffffffff1614610f73576040517f08c379a00000000000000000000000000000000000000000000000000000000081526004018080602001828103825260148152602001807f4e6f7420536572766963652070726f766964657200000000000000000000000081525060200191505060405180910390fd5b610f808686868686611477565b905095945050505050565b60076020528060005260406000206000915090508060000160009054906101000a900460ff16908060000160019054906101000a900463ffffffff16908060010154908060020154908060030160009054906101000a900463ffffffff16908060030160049054906101000a900463ffffffff16908060030160089054906101000a900463ffffffff169080600301600c9054906101000a900463ffffffff16908060030160109054906101000a900463ffffffff16908060030160149054906101000a900463ffffffff16908060030160189054906101000a900461ffff169080600301601a9054906101000a900461ffff169080600301601c9054906101000a900460ff1690508d565b60015481565b6000809054906101000a900473ffffffffffffffffffffffffffffffffffffffff1681565b60035481565b60008373ffffffffffffffffffffffffffffffffffffffff163373ffffffffffffffffffffffffffffffffffffffff161461116b576040517f08c379a000000000000000000000000000000000000000000000000000000000815260040180806020018281038252600c8152602001807f4e6f7420436f6e73756d6572000000000000000000000000000000000000000081525060200191505060405180910390fd5b61117886868686866117ae565b905095945050505050565b60008473ffffffffffffffffffffffffffffffffffffffff163373ffffffffffffffffffffffffffffffffffffffff1614611226576040517f08c379a00000000000000000000000000000000000000000000000000000000081526004018080602001828103825260148152602001807f4e6f7420536572766963652070726f766964657200000000000000000000000081525060200191505060405180910390fd5b6112338686868686611d6f565b905095945050505050565b6000809054906101000a900473ffffffffffffffffffffffffffffffffffffffff1673ffffffffffffffffffffffffffffffffffffffff163373ffffffffffffffffffffffffffffffffffffffff161461129757600080fd5b6006548111156112a657600080fd5b806006600082825403925050819055508173ffffffffffffffffffffffffffffffffffffffff166108fc829081150290604051600060405180830381858888f193505050501580156112fc573d6000803e3d6000fd5b505050565b60045481565b60065481565b60008373ffffffffffffffffffffffffffffffffffffffff163373ffffffffffffffffffffffffffffffffffffffff16146113b0576040517f08c379a000000000000000000000000000000000000000000000000000000000815260040180806020018281038252600c8152602001807f4e6f7420436f6e73756d6572000000000000000000000000000000000000000081525060200191505060405180910390fd5b6113bd8686868686612175565b905095945050505050565b60025481565b6000806064838502816113dd57fe5b0490508091505092915050565b60006127108261ffff168402816113fd57fe5b049050806005819055508281840311156114175750611472565b806006600082825401925050819055508373ffffffffffffffffffffffffffffffffffffffff166108fc8285039081150290604051600060405180830381858888f1935050505015801561146f573d6000803e3d6000fd5b50505b505050565b60006114816127a9565b600061149088888888886126a6565b9150604051806101a00160405290816000820160009054906101000a900460ff161515151581526020016000820160019054906101000a900463ffffffff1663ffffffff1663ffffffff16815260200160018201548152602001600282015481526020016003820160009054906101000a900463ffffffff1663ffffffff1663ffffffff1681526020016003820160049054906101000a900463ffffffff1663ffffffff1663ffffffff1681526020016003820160089054906101000a900463ffffffff1663ffffffff1663ffffffff16815260200160038201600c9054906101000a900463ffffffff1663ffffffff1663ffffffff1681526020016003820160109054906101000a900463ffffffff1663ffffffff1663ffffffff1681526020016003820160149054906101000a900463ffffffff1663ffffffff1663ffffffff1681526020016003820160189054906101000a900461ffff1661ffff1661ffff16815260200160038201601a9054906101000a900461ffff1661ffff1661ffff16815260200160038201601c9054906101000a900460ff16600581111561163557fe5b600581111561164057fe5b815250509150816000015161165a576000925050506117a5565b6000600581111561166757fe5b826101800151600581111561167857fe5b148061169f57506001600581111561168c57fe5b826101800151600581111561169d57fe5b145b6116f4576040517f08c379a000000000000000000000000000000000000000000000000000000000815260040180806020018281038252603e815260200180612851603e913960400191505060405180910390fd5b6000429050806007600084815260200190815260200160002060000160016101000a81548163ffffffff021916908363ffffffff160217905550600260076000848152602001908152602001600020600301601c6101000a81548160ff0219169083600581111561176157fe5b02179055507fd324065b90f3e4348de67de1eb4a0a3c0c86b12203ed55d27b62ca4c5ac70426826040518082815260200191505060405180910390a1600193505050505b95945050505050565b60006117b86127a9565b60006117c788888888886126a6565b9150604051806101a00160405290816000820160009054906101000a900460ff161515151581526020016000820160019054906101000a900463ffffffff1663ffffffff1663ffffffff16815260200160018201548152602001600282015481526020016003820160009054906101000a900463ffffffff1663ffffffff1663ffffffff1681526020016003820160049054906101000a900463ffffffff1663ffffffff1663ffffffff1681526020016003820160089054906101000a900463ffffffff1663ffffffff1663ffffffff16815260200160038201600c9054906101000a900463ffffffff1663ffffffff1663ffffffff1681526020016003820160109054906101000a900463ffffffff1663ffffffff1663ffffffff1681526020016003820160149054906101000a900463ffffffff1663ffffffff1663ffffffff1681526020016003820160189054906101000a900461ffff1661ffff1661ffff16815260200160038201601a9054906101000a900461ffff1661ffff1661ffff16815260200160038201601c9054906101000a900460ff16600581111561196c57fe5b600581111561197757fe5b815250509150816000015161199157600092505050611d66565b6002600581111561199e57fe5b60076000838152602001908152602001600020600301601c9054906101000a900460ff1660058111156119cd57fe5b14156119de57600092505050611d66565b600080905060004290506007600084815260200190815260200160002060030160049054906101000a900463ffffffff1663ffffffff168163ffffffff16118015611a5b57506007600084815260200190815260200160002060030160089054906101000a900463ffffffff1663ffffffff168163ffffffff1611155b15611ac857606460076000858152602001908152602001600020600301600c9054906101000a900463ffffffff1663ffffffff1660076000868152602001908152602001600020600201540281611aae57fe5b04915081600281905550611ac38983886113ea565b611ba5565b6007600084815260200190815260200160002060030160089054906101000a900463ffffffff1663ffffffff168163ffffffff16118015611b3b57506007600084815260200190815260200160002060030160109054906101000a900463ffffffff1663ffffffff168163ffffffff1611155b15611ba45760646007600085815260200190815260200160002060030160149054906101000a900463ffffffff1663ffffffff1660076000868152602001908152602001600020600201540281611b8e57fe5b04915081600281905550611ba38983886113ea565b5b5b6000826007600086815260200190815260200160002060020154039050806004819055507feb3068634ce36ec03afc4df3b2f8754e0cfcb6855df545b0d46dc593ce432116846040518082815260200191505060405180910390a1611c0b8982896113ea565b600460076000868152602001908152602001600020600301601c6101000a81548160ff02191690836005811115611c3e57fe5b021790555060076000858152602001908152602001600020600080820160006101000a81549060ff02191690556000820160016101000a81549063ffffffff0219169055600182016000905560028201600090556003820160006101000a81549063ffffffff02191690556003820160046101000a81549063ffffffff02191690556003820160086101000a81549063ffffffff021916905560038201600c6101000a81549063ffffffff02191690556003820160106101000a81549063ffffffff02191690556003820160146101000a81549063ffffffff02191690556003820160186101000a81549061ffff021916905560038201601a6101000a81549061ffff021916905560038201601c6101000a81549060ff021916905550506001955050505050505b95945050505050565b6000611d796127a9565b6000611d8888888888886126a6565b9150604051806101a00160405290816000820160009054906101000a900460ff161515151581526020016000820160019054906101000a900463ffffffff1663ffffffff1663ffffffff16815260200160018201548152602001600282015481526020016003820160009054906101000a900463ffffffff1663ffffffff1663ffffffff1681526020016003820160049054906101000a900463ffffffff1663ffffffff1663ffffffff1681526020016003820160089054906101000a900463ffffffff1663ffffffff1663ffffffff16815260200160038201600c9054906101000a900463ffffffff1663ffffffff1663ffffffff1681526020016003820160109054906101000a900463ffffffff1663ffffffff1663ffffffff1681526020016003820160149054906101000a900463ffffffff1663ffffffff1663ffffffff1681526020016003820160189054906101000a900461ffff1661ffff1661ffff16815260200160038201601a9054906101000a900461ffff1661ffff1661ffff16815260200160038201601c9054906101000a900460ff166005811115611f2d57fe5b6005811115611f3857fe5b8152505091508160000151611f525760009250505061216c565b60026005811115611f5f57fe5b60076000838152602001908152602001600020600301601c9054906101000a900460ff166005811115611f8e57fe5b1415611f9f5760009250505061216c565b7f7e1b8bd6ad2377f0ea22e09a00bc100cf198e951c58de7b23577d00d447d0f10816040518082815260200191505060405180910390a16007600082815260200190815260200160002060020154600481905550612014866007600084815260200190815260200160002060020154866113ea565b600360076000838152602001908152602001600020600301601c6101000a81548160ff0219169083600581111561204757fe5b021790555060076000828152602001908152602001600020600080820160006101000a81549060ff02191690556000820160016101000a81549063ffffffff0219169055600182016000905560028201600090556003820160006101000a81549063ffffffff02191690556003820160046101000a81549063ffffffff02191690556003820160086101000a81549063ffffffff021916905560038201600c6101000a81549063ffffffff02191690556003820160106101000a81549063ffffffff02191690556003820160146101000a81549063ffffffff02191690556003820160186101000a81549061ffff021916905560038201601a6101000a81549061ffff021916905560038201601c6101000a81549060ff021916905550506001925050505b95945050505050565b600061217f6127a9565b600061218e88888888886126a6565b9150604051806101a00160405290816000820160009054906101000a900460ff161515151581526020016000820160019054906101000a900463ffffffff1663ffffffff1663ffffffff16815260200160018201548152602001600282015481526020016003820160009054906101000a900463ffffffff1663ffffffff1663ffffffff1681526020016003820160049054906101000a900463ffffffff1663ffffffff1663ffffffff1681526020016003820160089054906101000a900463ffffffff1663ffffffff1663ffffffff16815260200160038201600c9054906101000a900463ffffffff1663ffffffff1663ffffffff1681526020016003820160109054906101000a900463ffffffff1663ffffffff1663ffffffff1681526020016003820160149054906101000a900463ffffffff1663ffffffff1663ffffffff1681526020016003820160189054906101000a900461ffff1661ffff1661ffff16815260200160038201601a9054906101000a900461ffff1661ffff1661ffff16815260200160038201601c9054906101000a900460ff16600581111561233357fe5b600581111561233e57fe5b81525050915081600001516123585760009250505061269d565b6002600581111561236557fe5b60076000838152602001908152602001600020600301601c9054906101000a900460ff16600581111561239457fe5b14612407576040517f08c379a00000000000000000000000000000000000000000000000000000000081526004018080602001828103825260198152602001807f4e6f742027534552564943455f5354415254272073746174650000000000000081525060200191505060405180910390fd5b60006007600083815260200190815260200160002060030160189054906101000a900461ffff1661ffff166007600084815260200190815260200160002060030160009054906101000a900463ffffffff160163ffffffff166007600084815260200190815260200160002060000160019054906101000a900463ffffffff1663ffffffff1611156124dd57606460076000848152602001908152602001600020600301601a9054906101000a900461ffff1661ffff168702816124c757fe5b049050806003819055506124dc8782876113ea565b5b6000816007600085815260200190815260200160002060020154039050806004819055507f6eec2dd2382427616d4ea7ef183b16091feac4e2e63c8b55f25215f132df8d14836040518082815260200191505060405180910390a16125438982886113ea565b600560076000858152602001908152602001600020600301601c6101000a81548160ff0219169083600581111561257657fe5b021790555060076000848152602001908152602001600020600080820160006101000a81549060ff02191690556000820160016101000a81549063ffffffff0219169055600182016000905560028201600090556003820160006101000a81549063ffffffff02191690556003820160046101000a81549063ffffffff02191690556003820160086101000a81549063ffffffff021916905560038201600c6101000a81549063ffffffff02191690556003820160106101000a81549063ffffffff02191690556003820160146101000a81549063ffffffff02191690556003820160186101000a81549061ffff021916905560038201601a6101000a81549061ffff021916905560038201601c6101000a81549060ff0219169055505060019450505050505b95945050505050565b6000806000878787878760405160200180866fffffffffffffffffffffffffffffffff19166fffffffffffffffffffffffffffffffff191681526010018573ffffffffffffffffffffffffffffffffffffffff1673ffffffffffffffffffffffffffffffffffffffff1660601b81526014018473ffffffffffffffffffffffffffffffffffffffff1673ffffffffffffffffffffffffffffffffffffffff1660601b81526014018381526020018261ffff1661ffff1660f01b815260020195505050505050604051602081830303815290604052805190602001209050600760008281526020019081526020016000208181915092509250509550959350505050565b604051806101a00160405280600015158152602001600063ffffffff1681526020016000815260200160008152602001600063ffffffff168152602001600063ffffffff168152602001600063ffffffff168152602001600063ffffffff168152602001600063ffffffff168152602001600063ffffffff168152602001600061ffff168152602001600061ffff1681526020016000600581111561284a57fe5b8152509056fe4e6f7420696e202754524144455f494e495449414c495a454427206f722027494e495449414c5f5041594d454e545f524543454956454427207374617465416d6f756e742073656e642073686f756c6420626520657175616c20746f20746865207369676e65642076616c756520616e642073686f756c642062652067726561746572207468616e205a65726fa265627a7a7231582030cb69718eb05146e9e395e00e36f3742f5764378c12f5e38929444ecbb6e91c64736f6c63430005100032",
  "source": "// SPDX-License-Identifier: RAN\npragma solidity >=0.4.22 <0.9.0;\n\n// pragma solidity ^0.7.4;\n\ncontract HeymateEscrows {\n    address public owner;\n    bytes32 public tradeHash;\n    uint256 public cancellationValueDeposit;\n    uint256 public delayCompensation;\n    uint256 public releaseAmount;\n    uint256 public totalFees;\n    uint256 public feesAvailableForWithdraw;\n\n    event Created(bytes32 _tradeHash);\n    event StartService(bytes32 _tradeHash);\n    event Released(bytes32 _tradeHash);\n    event CancelledByServiceProvider(bytes32 _tradeHash);\n    event CancelledByConsumer(bytes32 _tradeHash);\n    \n    // To remove\n    enum State{ TRADE_INITIALIZED, INITIAL_PAYMENT_RECEIVED, SERVICE_START,\n    SERVICE_CANCELLED_BY_SP, SERVICE_CANCELLED_BY_CS, SERVICE_COMPLETE }\n        \n\n     struct Offer {\n        bool exists;\n        uint32 serviceStartTime;\n        uint256 initialDepositValue;\n        uint256 remainingValue;\n        uint32 slotTime;\n        uint32 tradeStartTime;\n        uint32 cancelHourVar1;\n        uint32 cancelHourVar1Percen;\n        uint32 cancelHourVar2;\n        uint32 cancelHourVar2Percen;\n        uint16 delayHour;\n        uint16 delayHourPercen;\n        State currentState;\n    }\n    \n    // Mapping of active trades. Key is a hash of the trade data\n    mapping (bytes32 => Offer) public offers;\n    \n    modifier onlyOwner() {\n        require(msg.sender == owner);\n        _;\n    }\n    \n    constructor() public {\n        owner = msg.sender;\n    }\n    \n    // Get the offer details\n     function getOfferAndHash(\n      bytes16 _tradeID,\n      address _serviceProvider,\n      address _consumer,\n      uint256 _amount,\n      uint16 _fee\n    ) view private returns (Offer storage, bytes32) {\n        bytes32 _tradeHash = keccak256(abi.encodePacked(_tradeID, _serviceProvider, _consumer, _amount, _fee));\n        return (offers[_tradeHash], _tradeHash);\n    }\n\n    // Creating offer - Trade between service provider and consumer\n    \n    function createOffer(\n      bytes16 _tradeID, \n      address payable _serviceProvider, \n      address _consumer,\n      uint256 _amount, \n      uint16 _fee, \n      uint32 _expiry,\n      uint32 _slotTime,\n      uint256 _initialDeposit,\n      uint32 _cancelHourVar1,\n      uint16 _cancelHourVar1Percen,\n      uint32 _cancelHourVar2,\n      uint16 _cancelHourVar2Percen,\n      uint16 _delayHour,\n      uint16 _delayHourPercen\n      \n    ) payable external  {\n        bytes32 _tradeHash = keccak256(abi.encodePacked(_tradeID, _serviceProvider, _consumer, _amount, _fee));\n        require(!offers[_tradeHash].exists, \"Trade already exist\");\n        require(block.timestamp < _expiry, \"Offer expired!\");\n        uint32 tradeStartTime = uint32(block.timestamp);\n        require(msg.value == _amount && msg.value > 0, \"Amount send should be equal to the signed value and should be greater than Zero\"); // Check sent eth against signed _value and make sure is not 0\n        \n        if (_cancelHourVar1 > 0){\n          _cancelHourVar1 = tradeStartTime +  _cancelHourVar1 * 60 * 60;                                                                                                                                                                                                                                                                                                                                                                                                                                                                                                                                                                                                                                                                                                                                                                                                                                                                                                                                                                                                                                                                                                                                                                                                                                                                                                                                                                                                                                                                                                                                                                                                                                                                                                                                                                                                                                                                                                                                                                                                                                                                                                                                                                                                                                                                                                                                                                                                                                                                                                                                                                                                                                                                                                                                                                                                                                                                                                                                                                                                                                                                                                                                                                                                                                                                                                                                                                                                                                                                                                                                                                                                   \n        }\n        \n        if(_cancelHourVar2 > 0){\n         _cancelHourVar2 = _cancelHourVar1 + _cancelHourVar2 * 60 * 60;\n        }\n        \n         if(_delayHour> 0){\n         _delayHour = _delayHour * 60 * 60;\n        }\n        \n        offers[_tradeHash] = Offer(true, 0, 0, 0, _slotTime, tradeStartTime, _cancelHourVar1, _cancelHourVar1Percen,\n        _cancelHourVar2, _cancelHourVar2Percen, _delayHour, _delayHourPercen, State.TRADE_INITIALIZED );\n        \n        tradeHash = _tradeHash;\n        \n        \n        if(_initialDeposit > 0) {\n\n            offers[_tradeHash].initialDepositValue = getInitialDeposit(_amount, _initialDeposit) ;\n            offers[_tradeHash].remainingValue = _amount - offers[_tradeHash].initialDepositValue;\n            offers[_tradeHash].currentState = State.INITIAL_PAYMENT_RECEIVED;\n            \n            transferMinusFees(_serviceProvider, offers[_tradeHash].initialDepositValue , _fee);\n         }\n         \n        emit Created(_tradeHash);\n    }\n    \n    \n    function getInitialDeposit(uint256 _amount, uint256 _initialDeposit) private pure returns (uint256) {\n         uint256 _initialDepositValue =  (_amount * _initialDeposit / 100);\n            return _initialDepositValue;\n    }\n   \n    // Start service function. Only SP can start the service.\n     function dostartService(\n      bytes16 _tradeID,\n      address _serviceProvider,\n      address _consumer,\n      uint256 _amount,\n      uint16 _fee\n    ) private returns (bool) {\n        (Offer memory _offer, bytes32 _tradeHash) = getOfferAndHash(_tradeID, _serviceProvider, _consumer, _amount, _fee);\n        \n        if (!_offer.exists) return false;\n        require(_offer.currentState == State.TRADE_INITIALIZED || _offer.currentState == State.INITIAL_PAYMENT_RECEIVED  , \"Not in 'TRADE_INITIALIZED' or 'INITIAL_PAYMENT_RECEIVED' state\");\n        \n        uint32 _serviceStartTime =  uint32(block.timestamp);\n        offers[_tradeHash].serviceStartTime = _serviceStartTime;\n        offers[_tradeHash].currentState = State.SERVICE_START;\n\n        emit  StartService(_tradeHash);\n        return true;\n    }\n    \n   \n    \n    // Consumer call this function to release remaining money and mark the service as Complete.\n    function doRelease(\n      bytes16 _tradeID,\n      address payable _serviceProvider,\n      address payable _consumer,\n      uint256 _amount,\n      uint16 _fee\n    ) private returns (bool) {\n       (Offer memory _offer, bytes32 _tradeHash) = getOfferAndHash(_tradeID, _serviceProvider, _consumer, _amount, _fee);\n\n        if (!_offer.exists) return false;\n        require(offers[_tradeHash].currentState == State.SERVICE_START, \"Not 'SERVICE_START' state\");\n         \n        uint256 _delayCompensationValue;\n        if(offers[_tradeHash].serviceStartTime > offers[_tradeHash].slotTime + offers[_tradeHash].delayHour )   {\n         _delayCompensationValue = (_amount * offers[_tradeHash].delayHourPercen / 100);\n         delayCompensation = _delayCompensationValue;\n         transferMinusFees(_consumer, _delayCompensationValue, _fee);\n        }\n\n        uint256 _releaseAmount = offers[_tradeHash].remainingValue - _delayCompensationValue;\n        releaseAmount = _releaseAmount;\n      \n        emit Released(_tradeHash);\n        transferMinusFees(_serviceProvider, _releaseAmount, _fee);\n        offers[_tradeHash].currentState = State.SERVICE_COMPLETE;\n        delete offers[_tradeHash];\n        return true;\n    }\n    \n    // SP can cancel the service.\n    function doServiceProviderCancel(\n      bytes16 _tradeID,\n      address _serviceProvider,\n      address payable _consumer,\n      uint256 _amount,\n      uint16 _fee\n    ) private returns (bool) {\n        (Offer memory _offer, bytes32 _tradeHash) = getOfferAndHash(_tradeID, _serviceProvider, _consumer, _amount, _fee);\n       \n        if (!_offer.exists) return false;\n        if(offers[_tradeHash].currentState == State.SERVICE_START) return false;\n\n        emit CancelledByServiceProvider(_tradeHash);\n        releaseAmount = offers[_tradeHash].remainingValue;\n        transferMinusFees(_consumer, offers[_tradeHash].remainingValue, _fee);\n        offers[_tradeHash].currentState = State.SERVICE_CANCELLED_BY_SP;\n        delete offers[_tradeHash];\n        return true;\n    }\n    \n    // Consumer can cancel the service. \n    function doConsumerCancel(\n      bytes16 _tradeID,\n      address payable _serviceProvider,\n      address payable _consumer,\n      uint256 _amount,\n      uint16 _fee\n    ) private returns (bool) {\n        (Offer memory _offer, bytes32 _tradeHash) = getOfferAndHash(_tradeID, _serviceProvider, _consumer, _amount, _fee);\n        if (!_offer.exists) return false;\n        if(offers[_tradeHash].currentState == State.SERVICE_START) return false;\n        \n        uint256 _cancellationValueDeposit = 0;\n        uint32 cancelTime =  uint32(block.timestamp);\n        \n        if(cancelTime > offers[_tradeHash].tradeStartTime  && cancelTime <= offers[_tradeHash].cancelHourVar1){\n              _cancellationValueDeposit = offers[_tradeHash].remainingValue * offers[_tradeHash].cancelHourVar1Percen / 100;\n               cancellationValueDeposit = _cancellationValueDeposit;\n               transferMinusFees(_serviceProvider, _cancellationValueDeposit, _fee);\n        }\n         \n        else if(cancelTime > offers[_tradeHash].cancelHourVar1 && cancelTime <= offers[_tradeHash].cancelHourVar2 ){\n              _cancellationValueDeposit = offers[_tradeHash].remainingValue *  offers[_tradeHash].cancelHourVar2Percen / 100;\n               cancellationValueDeposit = _cancellationValueDeposit;\n               transferMinusFees(_serviceProvider, _cancellationValueDeposit, _fee);\n        }\n         \n       \n        uint256 _releaseAmount = offers[_tradeHash].remainingValue - _cancellationValueDeposit;\n        releaseAmount = _releaseAmount;\n      \n        emit CancelledByConsumer(_tradeHash);\n        transferMinusFees(_consumer,  _releaseAmount, _fee);\n        offers[_tradeHash].currentState = State.SERVICE_CANCELLED_BY_CS;\n        delete offers[_tradeHash];\n        return true;\n    }\n  \n    \n      function startService(bytes16 _tradeID, address _serviceProvider, address _consumer, uint256 _amount, uint16 _fee) external returns (bool){\n      require(msg.sender == _serviceProvider, \"Not Service provider\");\n      return dostartService(_tradeID,  _serviceProvider, _consumer, _amount, _fee);\n    }\n    \n    \n     function release(bytes16 _tradeID, address payable _serviceProvider, address payable _consumer, uint256 _amount, uint16 _fee) external payable returns (bool){\n     require(msg.sender == _consumer, \"Not Consumer\");\n     return doRelease(_tradeID, _serviceProvider, _consumer, _amount, _fee);\n    }\n    \n    \n     function consumerCancel(bytes16 _tradeID, address payable _serviceProvider, address payable _consumer, uint256 _amount, uint16 _fee) external returns (bool) {\n     require(msg.sender == _consumer, \"Not Consumer\");\n     return doConsumerCancel(_tradeID, _serviceProvider, _consumer, _amount, _fee);\n    }\n    \n      function serviceProviderCancel(bytes16 _tradeID, address _serviceProvider, address payable _consumer, uint256 _amount, uint16 _fee) external returns (bool) {\n      require(msg.sender == _serviceProvider, 'Not Service provider');\n      return doServiceProviderCancel(_tradeID, _serviceProvider, _consumer, _amount, _fee);\n    }\n    \n     function transferMinusFees(address payable  _to, uint256 _amount, uint16 _fee) private {\n        uint256 _totalFees = (_amount * _fee / 10000);\n        totalFees = _totalFees;\n        if(_amount - _totalFees > _amount) return; // Prevent underflow\n        feesAvailableForWithdraw += _totalFees; \n        _to.transfer(_amount - _totalFees);\n    }\n    \n     function withdrawFees(address payable _to, uint256 _amount) onlyOwner external {\n        require(_amount <= feesAvailableForWithdraw); // Prevents underflow\n        feesAvailableForWithdraw -= _amount;\n        _to.transfer(_amount);\n    }\n    \n      function setOwner(address _newOwner) onlyOwner external {\n        owner = _newOwner;\n    }\n}\n\n",
  "sourcePath": "/home/liz/Documents/Work/HEYMATE/_Client/celo-smart-contracts/contracts/heymateOffer.sol",
  "compiler": {
    "name": "solc",
    "version": "0.5.16+commit.9c3226ce.Emscripten.clang"
  },
  "schemaVersion": "3.3.4",
  "updatedAt": "2021-03-06T13:36:57.103Z",
  "networkType": "ethereum",
  "devdoc": {
    "methods": {}
  },
  "userdoc": {
    "methods": {}
  }
}